:020000040800F2
:1000000000C0002059650008FD6400080365000871
:10001000096500080F65000815650008000000006C
:100020000000000000000000000000001B65000848
:100030002765000800000000336500083F650008E0
:10004000A1650008A1650008A1650008A165000878
:10005000A1650008A1650008A1650008A165000868
:10006000A1650008A1650008A1650008A165000858
:10007000A1650008A1650008A1650008A165000848
:10008000A1650008A1650008A1650008A165000838
:10009000A1650008A1650008A1650008A165000828
:1000A000A1650008A1650008A1650008A165000818
:1000B000A1650008A1650008A1650008A165000808
:1000C000A1650008A1650008A1650008A1650008F8
:1000D000A1650008A1650008A1650008A1650008E8
:1000E000A1650008A1650008A1650008A1650008D8
:1000F000A1650008A1650008A1650008A1650008C8
:10010000A1650008A1650008A1650008A1650008B7
:10011000A1650008A1650008A1650008A1650008A7
:10012000A1650008A1650008A1650008A165000897
:1001300000000000000000000000000000000000BF
:1001400000000000000000000000000000000000AF
:10015000000000000000000000000000000000009F
:10016000000000000000000000000000000000008F
:10017000000000000000000000000000000000007F
:10018000000000000000000000000000000000006F
:10019000000000000000000000000000000000005F
:1001A000000000000000000000000000000000004F
:1001B000000000000000000000000000000000003F
:1001C000000000000000000000000000000000002F
:1001D000000000000000000000000000000000001F
:0401E0005FF8E0F1F3
:1001E80010B5054C237833B9044B13B10448AFF369
:1001F80000800123237010BD1000002000000000C3
:10020800C873000808B5034B1BB103490348AFF393
:10021800008008BD0000000014000020C87300081A
:1002280070B54FF0FF0C4CF4E06C1CEA11541DBF84
:100238001CEA135594EA0C0F95EA0C0F00F0DEF84F
:100248002C4481EA030621EA4C5123EA4C5350EA34
:10025800013518BF52EA033541F4801143F4801385
:1002680038D0A0FB02CE4FF00005E1FB02E506F016
:100278000042E0FB03E54FF00006E1FB03569CF06B
:10028800000F18BF4EF0010EA4F1FF04B6F5007F71
:1002980064F5407404D25FEA4E0E6D4146EB0606E3
:1002A80042EAC62141EA55514FEAC52040EA5E506C
:1002B8004FEACE2EB4F1FD0C88BFBCF5E06F1ED816
:1002C800BEF1004F08BF5FEA500E50F1000041EB4D
:1002D800045170BD06F0004646EA010140EA0200FA
:1002E80081EA0301B4EB5C04C2BFD4EB0C0541EA1C
:1002F800045170BD41F480114FF0000E013C00F331
:10030800AB8014F1360FDEBF002001F0004170BD54
:10031800C4F10004203C35DA0C341BDC04F114046D
:10032800C4F1200500FA05F320FA04F001FA05F2F9
:1003380040EA020001F0004221F0004110EBD370C6
:1003480021FA04F642EB06015EEA430E08BF20EAF2
:10035800D37070BDC4F10C04C4F1200500FA04F395
:1003680020FA05F001FA04F240EA020001F0004127
:1003780010EBD37041F100015EEA430E08BF20EA9A
:10038800D37070BDC4F1200500FA05F24EEA020EE2
:1003980020FA04F301FA05F243EA020321FA04F011
:1003A80001F0004121FA04F220EA020000EBD370C8
:1003B8005EEA430E08BF20EAD37070BD94F0000FC8
:1003C8000FD101F00046400041EB010111F4801FFC
:1003D80008BF013CF7D041EA060195F0000F18BFAD
:1003E800704703F00046520043EB030313F4801FE9
:1003F80008BF013DF7D043EA0603704794EA0C0FA3
:100408000CEA135518BF95EA0C0F0CD050EA4106B8
:1004180018BF52EA4306D1D181EA030101F0004135
:100428004FF0000070BD50EA410606BF104619465D
:1004380052EA430619D094EA0C0F02D150EA013669
:1004480013D195EA0C0F05D152EA03361CBF1046AA
:1004580019460AD181EA030101F0004141F0FE4149
:1004680041F470014FF0000070BD41F0FE4141F4CD
:10047800780170BD81F0004102E000BF83F00043C5
:1004880030B54FEA41044FEA430594EA050F08BF27
:1004980090EA020F1FBF54EA000C55EA020C7FEAEB
:1004A800645C7FEA655C00F0E2804FEA5454D4EB68
:1004B8005555B8BF6D420CDD2C4480EA020281EA32
:1004C800030382EA000083EA010180EA020281EA6A
:1004D8000303362D88BF30BD11F0004F4FEA0131BC
:1004E8004FF4801C4CEA113102D0404261EB4101CB
:1004F80013F0004F4FEA03334CEA133302D0524251
:1005080063EB430394EA050F00F0A780A4F101040C
:10051800D5F1200E0DDB02FA0EFC22FA05F2801846
:1005280041F1000103FA0EF2801843FA05F359412C
:100538000EE0A5F120050EF1200E012A03FA0EFCAB
:1005480028BF4CF0020C43FA05F3C01851EBE371D5
:1005580001F0004507D54FF0000EDCF1000C7EEBF2
:1005680000006EEB0101B1F5801F1BD3B1F5001F30
:100578000CD349085FEA30004FEA3C0C04F101044F
:100588004FEA445212F5800F80F09A80BCF1004F78
:1005980008BF5FEA500C50F1000041EB045141EAFA
:1005A800050130BD5FEA4C0C404141EB0101013CC3
:1005B80028BFB1F5801FE9D291F0000F04BF0146B2
:1005C8000020B1FA81F308BF2033A3F10B03B3F184
:1005D80020020CDA0C3208DD02F1140CC2F10C0214
:1005E80001FA0CF021FA02F10CE002F11402D8BF72
:1005F800C2F1200C01FA02F120FA0CFCDCBF41EA3E
:100608000C019040E41AA2BF01EB0451294330BD0C
:100618006FEA04041F3C1CDA0C340EDC04F11404E9
:10062800C4F1200220FA04F001FA02F340EA0300C0
:1006380021FA04F345EA030130BDC4F10C04C4F106
:10064800200220FA02F001FA04F340EA03002946E6
:1006580030BD21FA04F0294630BD94F0000F83F430
:10066800801306BF81F480110134013D4EE77FEA13
:10067800645C18BF7FEA655C29D094EA050F08BF5F
:1006880090EA020F05D054EA000C04BF1946104640
:1006980030BD91EA030F1EBF0021002030BD5FEA84
:1006A800545C05D14000494128BF41F0004130BDAC
:1006B80014F580043CBF01F5801130BD01F0004500
:1006C80045F0FE4141F470014FF0000030BD7FEA73
:1006D800645C1ABF194610467FEA655C1CBF0B466E
:1006E800024650EA013406BF52EA033591EA030F85
:1006F80041F4002130BD00BF90F0000F04BF00217D
:10070800704730B54FF4806404F132044FF00005AF
:100718004FF0000150E700BF90F0000F04BF002128
:10072800704730B54FF4806404F1320410F000458E
:1007380048BF40424FF000013EE700BF42004FEA89
:10074800E2014FEA31014FEA02701FBF12F07F4306
:1007580093F07F4F81F06051704732F07F4208BFBD
:10076800704793F07F4F04BF41F40021704730B5C4
:100778004FF4607401F0004521F000411CE700BF10
:1007880050EA010208BF704730B54FF000050AE093
:1007980050EA010208BF704730B511F0004502D594
:1007A800404261EB41014FF4806404F132045FEA96
:1007B800915C3FF4D8AE4FF003025FEADC0C18BF3F
:1007C80003325FEADC0C18BF033202EBDC02C2F131
:1007D800200300FA03FC20FA02F001FA03FE40EAC3
:1007E8000E0021FA02F11444BDE600BF4A0011D2FE
:1007F80012F5001211D20DD56FF47873B3EB625273
:100808000ED44FEAC12343F0004343EA505323FA7E
:1008180002F070474FF00000704750EA013002D1F3
:100828004FF0FF3070474FF00000704780B483B03E
:1008380000AF0346FB800D4B4FF480725A610B4B9F
:100848004FF400725A610A4AFB88D360074B802232
:100858005A61064B80221A61044B4FF400721A61E8
:1008680000BF0C37BD4680BC704700BF0010014078
:10087800000C014080B483B000AF0346FB800D4BF1
:100888004FF480721A610B4B4FF400725A610A4A96
:10089800FB88D360074B80225A61064B80221A617D
:1008A800044B4FF400721A6100BF0C37BD4680BC80
:1008B800704700BF00100140000C014080B582B0B5
:1008C80000AF1D4B4FF088321A601B4B4FF0883237
:1008D8005A60194B0022DA60184B4FF480721A6183
:1008E800164B4FF400725A61144B40225A61144B54
:1008F8009B8848F68912934202D1012005F0B0FE88
:100908000D4B9B68FB800D4B40221A610B4B4FF43B
:1009180000721A61084B4FF033321A60064B4FF0E1
:1009280033325A60044B4FF6FF72DA60FB88184680
:100938000837BD4680BD00BF000C014000100140D3
:100948003000002080B582B000AF03460A46FB8025
:100958001346BB80FB881846FFF768FF0C4B4FF423
:1009680080721A610A4B4FF400725A61094ABB88B7
:10097800D360074B80225A61054B80221A61044BD1
:100988004FF400721A6100BF0837BD4680BD00BF32
:1009980000100140000C014080B582B000AF034652
:1009A800FB80FB881846FFF741FFFFF787FF0346E8
:1009B80018460837BD4680BD80B500AF034B1B897C
:1009C8001846FFF733FF00BF80BD00BF300000208E
:1009D80080B582B000AF03460A46FB801346BB8051
:1009E800734B9B8849F24132934205D0704B9B88E8
:1009F80045F21032934264D16D4B5B891846FFF77C
:100A080015FF6C4B4FF480721A616A4B4FF40072F9
:100A18005A61FB881B0A9AB2674BDA60654B8022E1
:100A28005A61644B80221A61624B4FF400721A615A
:100A3800604B4FF480721A615E4B4FF400725A613A
:100A4800FB885D4ADBB2D3605A4B80225A61594B0E
:100A580080221A61574B4FF400721A61544B9B89DC
:100A68001846FFF7E3FE534B4FF480721A61514B5F
:100A78004FF400725A61BB881B0A9AB24E4BDA6077
:100A88004C4B80225A614B4B80221A61494B4FF4E0
:100A980000721A61474B4FF480721A61454B4FF44C
:100AA80000725A61BB88444ADBB2D360414B802252
:100AB8005A61404B80221A613E4B4FF400721A6112
:100AC80048E23B4B9B8846F60402934276D1384B6A
:100AD8009B79012B06D1364B1A88FB88D31A9BB217
:100AE800013BFB80324B5B891846FFF79FFE314B79
:100AF8004FF480721A612F4B4FF400725A61FB88D1
:100B08001B0A9AB22C4BDA602A4B80225A61294B75
:100B180080221A61274B4FF400721A61254B4FF45B
:100B280080721A61234B4FF400725A61FB88224A83
:100B3800DBB2D3601F4B80225A611E4B80221A61A0
:100B48001C4B4FF400721A61194B9B891846FFF72A
:100B58006DFE184B4FF480721A61164B4FF40072F9
:100B68005A61BB881B0A9AB2134BDA60114B802278
:100B78005A61104B80221A610E4B4FF400721A61B1
:100B88000C4B4FF480721A610A4B4FF400725A6191
:100B9800BB88094ADBB2D360064B80225A61054BF9
:100BA80080221A61034B4FF400721A61D2E100BF30
:100BB8003000002000100140000C0140994B9B8838
:100BC80041F66312934240F03381964B9B79002B98
:100BD80063D1944B1A88FB88D31A9BB2013BFB80E4
:100BE800904B5B891846FFF721FE8F4B4FF48072BC
:100BF8001A618D4B4FF400725A618C4B0022DA60F7
:100C0800894B80225A61884B80221A61864B4FF4A7
:100C180000721A61844B4FF480721A61824B4FF450
:100C280000725A61814B0022DA607F4B80225A6140
:100C38007D4B80221A617C4B4FF400721A617A4B0B
:100C48004FF480721A61784B4FF400725A61FB8836
:100C58001B0A9AB2754BDA60734B80225A61724B49
:100C680080221A61704B4FF400721A616E4B4FF478
:100C780080721A616C4B4FF400725A61FB886B4AA0
:100C8800DBB2D360684B80225A61674B80221A61BD
:100C9800654B4FF400721A6161E0624B5B8918463C
:100CA800FFF7C4FD604B4FF480721A615E4B4FF43E
:100CB80000725A61FB881B0A9AB25C4BDA605A4B85
:100CC80080225A61584B80221A61574B4FF40072A8
:100CD8001A61554B4FF480721A61534B4FF40072EE
:100CE8005A61FB88514ADBB2D3604F4B80225A616C
:100CF8004D4B80221A614C4B4FF400721A614A4BDB
:100D08004FF480721A61484B4FF400725A61454B98
:100D18001B88013B1A12454BDA60434B80225A610B
:100D2800414B80221A61404B4FF400721A613E4BCE
:100D38004FF480721A613C4B4FF400725A61394B80
:100D48001B88013B394ADBB2D360374B80225A619A
:100D5800354B80221A61344B4FF400721A61314BC3
:100D68009B891846FFF762FD2F4B4FF480721A617A
:100D78002D4B4FF400725A61BB881B0A9AB22B4B59
:100D8800DA60294B80225A61274B80221A61264B50
:100D98004FF400721A61244B4FF480721A61224B8F
:100DA8004FF400725A61BB88204ADBB2D3601E4BF5
:100DB80080225A611C4B80221A611B4B4FF400722F
:100DC8001A61194B4FF480721A61174B4FF4007275
:100DD8005A61144B5B88013B1A12144BDA60124BB0
:100DE80080225A61104B80221A610F4B4FF4007217
:100DF8001A610D4B4FF480721A610B4B4FF400725D
:100E08005A61084B5B88013B084ADBB2D360064B4A
:100E180080225A61044B80221A61034B4FF40072FE
:100E28001A6197E03000002000100140000C0140DA
:100E38004A4B9B8845F21052934272D1474B5B89CB
:100E48001846FFF7F3FC464B4FF480721A61444B87
:100E58004FF400725A61FB881B0A9AB2414BDA6060
:100E68003F4B80225A613E4B80221A613C4B4FF423
:100E780000721A61394B5B8901339BB21846FFF740
:100E8800D5FC374B4FF480721A61354B4FF4007222
:100E98005A61FB88334ADBB2D360314B80225A61F6
:100EA8002F4B80221A612E4B4FF400721A612B4B84
:100EB8009B891846FFF7BAFC294B4FF480721A61D8
:100EC800274B4FF400725A61BB881B0A9AB2254B14
:100ED800DA60234B80225A61214B80221A61204B11
:100EE8004FF400721A611D4B9B8901339BB218465F
:100EF800FFF79CFC1A4B4FF480721A61184B4FF4A1
:100F080000725A61BB88174ADBB2D360144B802247
:100F18005A61134B80221A61114B4FF400721A6107
:100F280018E00E4B9B79012B06D10C4B1A88FB88D5
:100F3800D31A9BB2013BFB80084B5B89FA881146A8
:100F48001846FFF7FFFC054B9B89BA8811461846DF
:100F5800FFF7F8FC00BF0837BD4680BD3000002011
:100F680000100140000C014080B584B000AF03467A
:100F7800FB710023FB810023BB81784B9B79012BFC
:100F88000BD1764B9B8846F60402934205D0734BEF
:100F98009B8841F66312934209D1704B9B79002BD1
:100FA80034D16E4B9B8841F6631293422ED1FB7964
:100FB800072B2CD801A252F823F000BFE50F000838
:100FC800EB0F0008F10F0008F70F0008FD0F0008ED
:100FD80003100008091000080F1000080623FB7111
:100FE80015E00723FB7112E00423FB710FE00523D2
:100FF800FB710CE00123FB7109E00023FB7106E0A3
:101008000323FB7103E00223FB7100E000BF534B95
:101018009B8849F24132934218D0504B9B8846F640
:101028000402934212D04D4B9B8845F210329342F2
:101038000CD04A4B9B8845F21052934206D0474B3E
:101048009B8841F66312934240F04F82FB79072B4D
:1010580035D801A252F823F0C71000088110000803
:101068008B100008951000089F100008A9100008B0
:10107800B3100008BD100008FB8943F08003FB8112
:101088001DE0FB8943F04003FB8118E0FB8943F036
:10109800C003FB8113E0FB8943F02003FB810EE0D2
:1010A800FB8943F06003FB8109E0FB8943F0A0035F
:1010B800FB8104E0FB8943F0E003FB8100BF274B81
:1010C8009B8845F21052934203D14FF45853BB8189
:1010D80001E03623BB81214B9B8845F210329342B5
:1010E8000FD01E4B9B8845F21052934209D01B4BE0
:1010F8009B8841F66312934203D0FB8943F00803AF
:10110800FB81164B9B8846F60402934203D1FB8968
:1011180043F00203FB81FA89BB8911461846FFF7A1
:1011280011FC0E4B9B8841F66312934228D0FB8931
:1011380003F02003002B13D0084B1A88074B5B8859
:101148009A421DD2054B1B887B81044B5A88034B5E
:101158001A80024A7B89538012E000BF30000020C9
:101168007F4B1A887E4B5B889A4209D97C4B1B8837
:101178007B817B4B5A887A4B1A80794A7B895380CA
:10118800774B9B8845F21052934240F0EF80744BA6
:101198005B891846FFF74AFB724B4FF480721A615D
:1011A800704B4FF400725A616F4B0022DA606D4B3E
:1011B80080225A616B4B80221A616A4B4FF400728D
:1011C8001A61674B5B8901339BB21846FFF72EFB08
:1011D800644B4FF480721A61624B4FF400725A618B
:1011E800614B0022DA605F4B80225A615D4B80229E
:1011F8001A615C4B4FF400721A61594B5B890233D8
:101208009BB21846FFF712FB564B4FF480721A61D7
:10121800544B4FF400725A61514B1B88013B1A1210
:10122800514BDA604F4B80225A614E4B80221A6133
:101238004C4B4FF400721A61494B5B8903339BB2E4
:101248001846FFF7F3FA474B4FF480721A61454B83
:101258004FF400725A61424B1B88013B424ADBB291
:10126800D360404B80225A613E4B80221A613D4B2D
:101278004FF400721A613A4B9B891846FFF7D6FA69
:10128800384B4FF480721A61364B4FF400725A6132
:10129800354B0022DA60334B80225A61314B802271
:1012A8001A61304B4FF400721A612D4B9B89013340
:1012B8009BB21846FFF7BAFA2A4B4FF480721A61AC
:1012C800284B4FF400725A61274B0022DA60254BF5
:1012D80080225A61234B80221A61224B4FF40072FC
:1012E8001A611F4B9B8902339BB21846FFF79EFA7F
:1012F8001C4B4FF480721A611A4B4FF400725A61FA
:10130800174B5B88013B1A12174BDA60154B80228A
:101318005A61144B80221A61124B4FF400721A6101
:101328000F4B9B8903339BB21846FFF77FFA0D4B8F
:101338004FF480721A610B4B4FF400725A61084BDC
:101348005B88013B084ADBB2D360064B80225A61B6
:10135800044B80221A61034B4FF400721A610BE1AF
:101368003000002000100140000C0140844B5B89D4
:101378001846FFF75BFA834B4FF480721A61814B72
:101388004FF400725A61804B0022DA607D4B802254
:101398005A617C4B80221A617A4B4FF400721A61B1
:1013A800784B4FF480721A61764B4FF400725A6191
:1013B800754B0022DA60734B80225A61714B802290
:1013C8001A61704B4FF400721A616E4B4FF48072C1
:1013D8001A616C4B4FF400725A61694B1B88013BD0
:1013E8001A12694BDA60674B80225A61654B80227A
:1013F8001A61644B4FF400721A61624B4FF48072A9
:101408001A61604B4FF400725A615D4B1B88013BB7
:101418005D4ADBB2D3605B4B80225A61594B802214
:101428001A61584B4FF400721A61554B9B89184644
:10143800FFF7FCF9534B4FF480721A61514B4FF48C
:1014480000725A61504B0022DA604E4B80225A617A
:101458004C4B80221A614B4B4FF400721A61494B76
:101468004FF480721A61474B4FF400725A61464B31
:101478000022DA60434B80225A61424B80221A6173
:10148800404B4FF400721A613E4B4FF480721A6160
:101498003C4B4FF400725A61394B5B88013B1A127E
:1014A800394BDA60374B80225A61364B80221A61F9
:1014B800344B4FF400721A61324B4FF480721A6148
:1014C800304B4FF400725A612D4B5B88013B2E4A1A
:1014D800DBB2D3602B4B80225A612A4B80221A61DF
:1014E800284B4FF400721A6146E0FB79072B36D877
:1014F80001A252F823F000BF211500082B1500089F
:1015080035150008671500083F150008491500083B
:10151800531500085D150008FB8943F03003FB8173
:101528001DE0FB8943F01003FB8118E0FB8943F0C1
:101538002003FB8113E0FB8943F03803FB810EE0B5
:10154800FB8943F02803FB8109E0FB8943F018037A
:10155800FB8104E0FB8943F00803FB8100BF032300
:10156800BB81FB8943F48053FB81FA89BB8911460F
:101578001846FFF7E7F900BF00BF1037BD4680BD2A
:101588003000002000100140000C014080B582B0FE
:1015980000AF03460A46FB801346BB80BA88FB8827
:1015A80011461846FFF714FAFFF706FA0C4B4FF4EA
:1015B80080721A610A4B4FF400725A61094B1A88FB
:1015C800094BDA60064B80225A61054B80221A616A
:1015D800034B4FF400721A6100BF0837BD4680BD47
:1015E800001001402C000020000C014080B582B0A2
:1015F80000AF0346FB800B46BB8013467B80754BD0
:101608009B8849F24132934205D0724B9B8845F240
:101618001032934264D16F4B5B891846FFF706F985
:101628006D4B4FF480721A616B4B4FF400725A6124
:10163800FB881B0A9AB2694BDA60674B80225A61B1
:10164800654B80221A61644B4FF400721A61624B39
:101658004FF480721A61604B4FF400725A61FB8834
:101668005E4ADBB2D3605C4B80225A615A4B8022BF
:101678001A61594B4FF400721A61564B9B891846F0
:10168800FFF7D4F8544B4FF480721A61524B4FF461
:1016980000725A61BB881B0A9AB2504BDA604E4BF3
:1016A80080225A614C4B80221A614B4B4FF40072D6
:1016B8001A61494B4FF480721A61474B4FF400721C
:1016C8005A61BB88454ADBB2D360434B80225A61DA
:1016D800414B80221A61404B4FF400721A61E6E1D7
:1016E8003C4B9B8845F21052934279D1394B5B8928
:1016F8001846FFF79BF8384B4FF480721A61364B47
:101708004FF400725A61FB881B0A9AB2334BDA60B5
:10171800314B80225A61304B80221A612E4B4FF494
:1017280000721A612B4B5B8901339BB21846FFF795
:101738007DF8294B4FF480721A61274B4FF40072E1
:101748005A61FB88254ADBB2D360234B80225A6159
:10175800214B80221A61204B4FF400721A611D4BF5
:101768009B891846FFF762F81B4B4FF480721A6189
:10177800194B4FF400725A61BB881B0A9AB2174B77
:10178800DA60154B80225A61134B80221A61124B82
:101798004FF400721A610F4B9B8901339BB21846B4
:1017A800FFF744F80C4B4FF480721A610A4B4FF460
:1017B80000725A61BB88094ADBB2D360064B8022AB
:1017C8005A61054B80221A61034B4FF400721A616B
:1017D8006DE100BF3000002000100140000C014006
:1017E800684B9B8841F66312934240F0D180654B69
:1017F8009B79002B06D1634B1A88FB88D31A9BB2BE
:10180800013BFB805F4B5B891846FFF70FF85E4B87
:101818004FF480721A615C4B4FF400725A61FB8876
:101828001B0A9AB2594BDA60574B80225A61564BC1
:1018380080221A61544B4FF400721A61524B4FF4D4
:1018480080721A61504B4FF400725A61FB884F4AFC
:10185800DBB2D3604C4B80225A614B4B80221A6119
:10186800494B4FF400721A61474B4FF480721A616A
:10187800454B4FF400725A61FB881B0A9AB2434BDE
:10188800DA60414B80225A613F4B80221A613E4BFD
:101898004FF400721A613C4B4FF480721A613A4B54
:1018A8004FF400725A61FB88384ADBB2D360364B7A
:1018B80080225A61344B80221A61334B4FF40072F4
:1018C8001A61304B9B891846FEF7B0FF2E4B4FF438
:1018D80080721A612C4B4FF400725A61BB881B0A44
:1018E8009AB22A4BDA60284B80225A61264B802212
:1018F8001A61254B4FF400721A61234B4FF4807222
:101908001A61214B4FF400725A61BB881F4ADBB23F
:10191800D3601D4B80225A611B4B80221A611A4BDF
:101928004FF400721A61184B4FF480721A61164B0B
:101938004FF400725A61BB881B0A9AB2134BDA60E3
:10194800114B80225A61104B80221A610E4B4FF4C2
:1019580000721A610C4B4FF480721A610A4B4FF4F3
:1019680000725A61BB88094ADBB2D360064B8022F9
:101978005A61054B80221A61034B4FF400721A61B9
:1019880095E000BF3000002000100140000C01402D
:101998005E4B9B8846F6040293426FD15B4B9B7962
:1019A800012B06D1594B1A88FB88D31A9BB2013BED
:1019B800FB80564B5B891846FEF738FF544B4FF4B3
:1019C80080721A61524B4FF400725A61FB881B0AED
:1019D8009AB2504BDA604E4B80225A614C4B8022AF
:1019E8001A614B4B4FF400721A61494B4FF48072E5
:1019F8001A61474B4FF400725A61FB88454ADBB2C3
:101A0800D360434B80225A61414B80221A61404B7C
:101A18004FF400721A613D4B9B891846FEF706FF8A
:101A28003B4B4FF480721A61394B4FF400725A6184
:101A3800BB881B0A9AB2374BDA60354B80225A6151
:101A4800334B80221A61324B4FF400721A61304BCB
:101A58004FF480721A612E4B4FF400725A61BB88A2
:101A68002C4ADBB2D3602A4B80225A61284B802251
:101A78001A61274B4FF400721A6118E0234B9B79C7
:101A8800012B06D1214B1A88FB88D31A9BB2013B44
:101A9800FB801E4B5B89FA8811461846FEF752FFF9
:101AA8001A4B9B89BA8811461846FEF74BFF184B0C
:101AB8004FF480725A61164B4FF400725A61134BFF
:101AC8001A89144BDA60124B80225A61104B80221B
:101AD8001A610F4B4FF400721A610D4B4FF480726C
:101AE8001A610B4B4FF400725A610A4A7B88D36023
:101AF800074B80225A61064B80221A61044B4FF42F
:101B080000721A6100BF0837BD4680BD3000002052
:101B180000100140000C014090B583B000AF0346AF
:101B2800FB71BE20FEF782FE4B4B4FF480721A61A8
:101B3800494B4FF400725A61484B0522DA60464B14
:101B480080225A61444B80221A61434B4FF4007241
:101B58001A61414B4FF480721A613F4B4FF4007287
:101B68005A61FB791846FEF7D7FD39A3D3E900235C
:101B7800FEF756FB02460B46384C10461946FEF750
:101B880035FE0346E360344B80225A61324B802293
:101B98001A61314B4FF400721A612F4B4FF4807267
:101BA8001A612D4B4FF400725A612C4B0122DA60F6
:101BB800294B80225A61284B80221A61264B4FF408
:101BC80000721A61244B4FF480721A61224B4FF451
:101BD80000725A61214BFF22DA601F4B80225A6142
:101BE8001D4B80221A611C4B4FF400721A611A4B6C
:101BF8004FF480721A61184B4FF400725A61174BF8
:101C08000022DA60144B80225A61134B80221A6139
:101C1800114B4FF400721A610F4B4FF480721A6126
:101C28000D4B4FF400725A610C4B0022DA600A4BDC
:101C380080225A61084B80221A61074B4FF40072C8
:101C48001A6100BF0C37BD4690BD00BFAFF30080DE
:101C5800666666666666044000100140000C014036
:101C680080B582B000AF0346FB71FB79002B77D1BA
:101C7800804B00229A717F4BF0221A807D4B4FF4E3
:101C8800A0725A807B4B9B8849F2413293420BD019
:101C9800784B9B8846F60402934205D0754B9B8887
:101CA80045F2103293421ED1724B2C221A81714B8D
:101CB8002A225A816F4B2B229A816E4B9B8846F6BB
:101CC8000402934206D06B4B9B8845F21032934234
:101CD80040F0C780674B4FF4A0721A80654B4FF4F1
:101CE800F0725A80BDE0634B9B8845F210529342D4
:101CF80014D1604B4FF430521A815E4B4FF4285286
:101D08005A815C4B4FF42C529A815A4B4FF4F07223
:101D18001A80584B4FF448725A80A3E0554B9B8861
:101D280041F66312934211D1524B2C221A81514B26
:101D38002B225A814F4B2A229A814E4B4FF4F07234
:101D48001A804C4B4FF448725A808BE0494B222240
:101D58001A81484B20225A81464B21229A8181E0E0
:101D6800444B01229A71434B4FF4A0721A80414BA5
:101D7800F0225A803F4B9B8849F24132934205D06A
:101D88003C4B9B8845F21032934209D1394B2C22A7
:101D98001A81384B2A225A81364B2B229A814BE0E2
:101DA800344B9B8846F60402934209D1314B2C22CE
:101DB8001A81304B2B225A812E4B2A229A813BE0E2
:101DC8002C4B9B8845F21052934214D1294B4FF467
:101DD80030521A81274B4FF428525A81254B4FF421
:101DE8002C529A81234B4FF448721A80214B4FF49E
:101DF800F0725A8020E01F4B9B8841F66312934291
:101E080011D11C4B2C221A811A4B2A225A81194BA8
:101E18002B229A81174B4FF448721A80154B4FF4B6
:101E2800F0725A8008E0134B22221A81114B2122AA
:101E38005A81104B20229A810E4B9B8846F6040249
:101E4800934205D00B4B9B8845F21032934209D13F
:101E5800084B4FF4F0721A80064B4FF4A0725A8068
:101E680000E000BF0020FFF77FF800BF0837BD463D
:101E780080BD00BF3000002080B586B000AF904B19
:101E88009B698F4A43F0080393618D4B9B6903F06C
:101E980008037B607B688A4B9B69894A43F010037F
:101EA8009361874B9B6903F010033B603B684FF4D9
:101EB800F863BB600123FB6001233B6103237B6163
:101EC80007F1080319467F4804F0D2FC4FF6FF7368
:101ED800BB6007F1080319467B4804F0C9FC3220AF
:101EE80004F0BEFB01210020FEF72CFD322004F097
:101EF800B7FB0020FEF750FD03461A46734B9A8045
:101F0800724B9B88FE2B0BD9704B9B884FF6FF7248
:101F1800934205D06D4B9B88B3F5134F40F0C880B2
:101F2800D320FEF783FCFEF7C9FCFEF7C7FCFEF7DB
:101F3800C5FC03461A46654B9A80644B9B881B0276
:101F48009AB2624B9A80FEF7B9FC03461A465F4B79
:101F58009B8813439AB25D4B9A805C4B9B8849F2ED
:101F68004132934200F0A480BF20FEF75FFCFEF7E9
:101F7800A5FCFEF7A3FCFEF7A1FCFEF79FFC0346B9
:101F88001A46524B9A80514B9B881B029AB24F4B70
:101F98009A80FEF793FC03461A464C4B9B881343E2
:101FA8009AB24A4B9A80494B9B8846F60402934260
:101FB8007ED0D420FEF73AFCFEF780FCFEF77EFCCC
:101FC800FEF77CFC03461A46404B9A803F4B9B88A1
:101FD8001B029AB23D4B9A80FEF770FC03461A46E4
:101FE8003A4B9B8813439AB2384B9A80374B9B885D
:101FF80045F2103293425BD04FF45A40FEF716FC7C
:10200800FEF75CFC4FF45B40FEF710FCFEF756FC55
:1020180003461A462D4B9A802C4B9B881B029AB27A
:102028002A4B9A804FF45C40FEF700FCFEF746FC12
:1020380003461A46254B9B8813439AB2234B9A8032
:10204800224B9B88B3F5004F03D1204B45F2105229
:102058009A801E4B9B8845F21052934228D0A120AB
:10206800FEF7E4FBFEF72AFC03461A46174B9A8054
:10207800FEF724FC03461A46144B9A80134B9B88A0
:102088001B029AB2114B9A80FEF718FC03461A46B7
:102098000E4B9B8813439AB20C4B9A800B4B9B8830
:1020A80045F26172934203D1084B41F663129A805C
:1020B800064B9B8849F24132934240F01F8107E06A
:1020C8000010024000100140000C014030000020C8
:1020D800CF20FEF7ABFB0020FEF7CCFBC120FEF7BC
:1020E800C9FB3020FEF7C6FBED20FEF79FFB6420FE
:1020F800FEF7C0FB0320FEF7BDFB1220FEF7BAFB7C
:102108008120FEF7B7FBE820FEF790FB8520FEF75D
:10211800B1FB1020FEF7AEFB7A20FEF7ABFBCB201D
:10212800FEF784FB3920FEF7A5FB2C20FEF7A2FB67
:102138000020FEF79FFB3420FEF79CFB0220FEF7F1
:1021480099FBF720FEF772FB2020FEF793FBEA20AD
:10215800FEF76CFB0020FEF78DFB0020FEF78AFBE4
:10216800C020FEF763FB1B20FEF784FBC120FEF7AF
:102178005DFB0120FEF77EFBC520FEF757FB3020F4
:10218800FEF778FB3020FEF775FBC720FEF74EFB05
:10219800B720FEF76FFB3620FEF748FB4820FEF716
:1021A80069FB3A20FEF742FB5520FEF763FBB1209E
:1021B800FEF73CFB0020FEF75DFB1A20FEF75AFBFA
:1021C800B620FEF733FB0A20FEF754FBA220FEF7E9
:1021D80051FBF220FEF72AFB0020FEF74BFB2620DE
:1021E800FEF724FB0120FEF745FBE020FEF71EFB6F
:1021F8000F20FEF73FFB2A20FEF73CFB2820FEF7C6
:1022080039FB0820FEF736FB0E20FEF733FB0820CB
:10221800FEF730FB5420FEF72DFBA920FEF72AFB22
:102228004320FEF727FB0A20FEF724FB0F20FEF7CA
:1022380021FB0020FEF71EFB0020FEF71BFB002001
:10224800FEF718FB0020FEF715FBE120FEF7EEFA7B
:102258000020FEF70FFB1520FEF70CFB1720FEF7FA
:1022680009FB0720FEF706FB1120FEF703FB0620FB
:10227800FEF700FB2B20FEF7FDFA5620FEF7FAFAD0
:102288003C20FEF7F7FA0520FEF7F4FA1020FEF7D7
:10229800F1FA0F20FEF7EEFA3F20FEF7EBFA3F20A7
:1022A800FEF7E8FA0F20FEF7E5FA2B20FEF7BEFA54
:1022B8000020FEF7DFFA0020FEF7DCFA0120FEF727
:1022C800D9FA3F20FEF7D6FA2A20FEF7AFFA002007
:1022D800FEF7D0FA0020FEF7CDFA0020FEF7CAFA82
:1022E800EF20FEF7C7FA1120FEF7A0FA782004F0D5
:1022F800B7F92920FEF79AFA03F0D8BC584B9B8807
:1023080046F60402934240F0AD801120FEF78EFAA3
:10231800142004F0A5F9D020FEF788FA0720FEF76C
:10232800A9FA4220FEF7A6FA1D20FEF7A3FAD1204B
:10233800FEF77CFA0020FEF79DFA1A20FEF79AFABB
:102348000920FEF797FAD220FEF770FA0120FEF76F
:1023580091FA2220FEF78EFAC020FEF767FA1020C5
:10236800FEF788FA3B20FEF785FA0020FEF782FA8E
:102378000220FEF77FFA1120FEF77CFAC520FEF74F
:1023880055FA0320FEF776FAC820FEF74FFA002028
:10239800FEF770FA2520FEF76DFA2120FEF76AFA9B
:1023A8000520FEF767FA0020FEF764FA0A20FEF718
:1023B80061FA6520FEF75EFA2520FEF75BFA7720C2
:1023C800FEF758FA5020FEF755FA0F20FEF752FA9A
:1023D8000020FEF74FFAF820FEF728FA0120FEF752
:1023E80049FAFE20FEF722FA0020FEF743FA0220FF
:1023F800FEF740FA2020FEF719FA3620FEF716FA03
:102408000820FEF737FA3A20FEF710FA5520FEF7B3
:1024180031FA2B20FEF70AFA0020FEF72BFA0020EB
:10242800FEF728FA0120FEF725FA3F20FEF722FAE8
:102438002A20FEF7FBF90020FEF71CFA0020FEF721
:1024480019FA0120FEF716FADF20FEF713FA7820B2
:1024580004F006F92920FEF7E9F903F027BC00BFCC
:1024680030000020034B9B8845F21032934240F025
:102478007C8701E030000020ED20FEF7D7F901202D
:10248800FEF7F8F9FE20FEF7F5F9EE20FEF7CEF993
:10249800DE20FEF7EFF92120FEF7ECF9F120FEF738
:1024A800C5F90120FEF7E6F9DF20FEF7BFF9102095
:1024B800FEF7E0F9C420FEF7B9F98F20FEF7DAF944
:1024C800C620FEF7B3F90020FEF7D4F9E220FEF7A4
:1024D800D1F9E220FEF7CEF9E220FEF7CBF9BF20D2
:1024E800FEF7A4F9AA20FEF7C5F9B020FEF79EF979
:1024F8000D20FEF7BFF90020FEF7BCF90D20FEF70E
:10250800B9F90020FEF7B6F91120FEF7B3F900205B
:10251800FEF7B0F91920FEF7ADF90020FEF7AAF989
:102528002120FEF7A7F90020FEF7A4F92D20FEF7D9
:10253800A1F90020FEF79EF93D20FEF79BF9002047
:10254800FEF798F95D20FEF795F90020FEF792F95D
:102558005D20FEF78FF90020FEF78CF9B120FEF719
:1025680065F98020FEF786F90020FEF783F98B20B5
:10257800FEF780F90020FEF77DF99620FEF77AF93C
:102588000020FEF777F9B220FEF750F90020FEF799
:1025980071F90020FEF76EF90220FEF76BF90020B2
:1025A800FEF768F90320FEF765F90020FEF762F9E7
:1025B800B320FEF73BF90020FEF75CF90020FEF798
:1025C80059F90020FEF756F90020FEF753F90020CC
:1025D800FEF750F90020FEF74DF90020FEF74AF902
:1025E8000020FEF747F90020FEF744F90020FEF727
:1025F80041F90020FEF73EF90020FEF73BF90020E4
:10260800FEF738F90020FEF735F90020FEF732F919
:102618000020FEF72FF90020FEF72CF90020FEF726
:1026280029F90020FEF726F90020FEF723F90020FB
:10263800FEF720F90020FEF71DF90020FEF71AF931
:102648000020FEF717F9B420FEF7F0F88B20FEF70C
:1026580011F90020FEF70EF99620FEF70BF900207D
:10266800FEF708F9A120FEF705F90020FEF702F9A8
:10267800B520FEF7DBF80220FEF7FCF80020FEF795
:10268800F9F80320FEF7F6F80020FEF7F3F8042027
:10269800FEF7F0F80020FEF7EDF8B620FEF7C6F8D2
:1026A8000020FEF7E7F80020FEF7E4F8B720FEF771
:1026B800BDF80020FEF7DEF80020FEF7DBF83F202B
:1026C800FEF7D8F80020FEF7D5F85E20FEF7D2F81E
:1026D8000020FEF7CFF86420FEF7CCF80020FEF7C4
:1026E800C9F88C20FEF7C6F80020FEF7C3F8AC2026
:1026F800FEF7C0F80020FEF7BDF8DC20FEF7BAF8B8
:102708000020FEF7B7F87020FEF7B4F80020FEF7B7
:10271800B1F89020FEF7AEF80020FEF7ABF8EB20FA
:10272800FEF7A8F80020FEF7A5F8DC20FEF7A2F8CF
:102738000020FEF79FF8B820FEF778F80020FEF793
:1027480099F80020FEF796F80020FEF793F800208D
:10275800FEF790F80020FEF78DF80020FEF78AF8C3
:102768000020FEF787F80020FEF784F8BA20FEF76D
:102778005DF82420FEF77EF80020FEF77BF80020A5
:10278800FEF778F80020FEF775F8C120FEF74EF83E
:102798002020FEF76FF80020FEF76CF85420FEF7B3
:1027A80069F80020FEF766F8FF20FEF763F80020BE
:1027B800FEF760F8C220FEF739F80A20FEF75AF84B
:1027C8000020FEF757F80420FEF754F80020FEF723
:1027D80051F8C320FEF72AF83C20FEF74BF80020FA
:1027E800FEF748F83A20FEF745F80020FEF742F8D1
:1027F8003920FEF73FF80020FEF73CF83720FEF7B7
:1028080039F80020FEF736F83C20FEF733F80020B0
:10281800FEF730F83620FEF72DF80020FEF72AF8EC
:102828003220FEF727F80020FEF724F82F20FEF7C5
:1028380021F80020FEF71EF82C20FEF71BF80020D8
:10284800FEF718F82920FEF715F80020FEF712F811
:102858002620FEF70FF80020FEF70CF82420FEF7DC
:1028680009F80020FEF706F82420FEF703F80020F8
:10287800FEF700F82320FDF7FDFF0020FDF7FAFF23
:102888003C20FDF7F7FF0020FDF7F4FF3620FDF7A9
:10289800F1FF0020FDF7EEFF3220FDF7EBFF0020EF
:1028A800FDF7E8FF2F20FDF7E5FF0020FDF7E2FF29
:1028B8002C20FDF7DFFF0020FDF7DCFF2920FDF7C6
:1028C800D9FF0020FDF7D6FF2620FDF7D3FF002013
:1028D800FDF7D0FF2420FDF7CDFF0020FDF7CAFF4C
:1028E8002420FDF7C7FF0020FDF7C4FF2320FDF7D4
:1028F800C1FF0020FDF7BEFFC420FDF797FF62204F
:10290800FDF7B8FF0020FDF7B5FF0520FDF7B2FF82
:102918000020FDF7AFFF8420FDF7ACFF0020FDF796
:10292800A9FFF020FDF7A6FF0020FDF7A3FF182060
:10293800FDF7A0FF0020FDF79DFFA420FDF79AFFFB
:102948000020FDF797FF1820FDF794FF0020FDF702
:1029580091FF5020FDF78EFF0020FDF78BFF0C2024
:10296800FDF788FF0020FDF785FF1720FDF782FFA0
:102978000020FDF77FFF9520FDF77CFF0020FDF785
:1029880079FFF320FDF776FF0020FDF773FFE620BF
:10299800FDF770FF0020FDF76DFFC520FDF746FF2E
:1029A8003220FDF767FF0020FDF764FF4420FDF7A4
:1029B80061FF0020FDF75EFF6520FDF75BFF00204B
:1029C800FDF758FF7620FDF755FF0020FDF752FF71
:1029D8008820FDF74FFF0020FDF74CFFC620FDF7CC
:1029E80025FF2020FDF746FF0020FDF743FF1720B5
:1029F800FDF740FF0020FDF73DFF0120FDF73AFFFE
:102A08000020FDF737FFC720FDF710FF0020FDF776
:102A180031FF0020FDF72EFF0020FDF72BFF0020DF
:102A2800FDF728FFC820FDF701FF0020FDF722FF72
:102A38000020FDF71FFF0020FDF71CFF0020FDF719
:102A480019FFC920FDF7F2FE0020FDF713FF002053
:102A5800FDF710FF0020FDF70DFF0020FDF70AFF2E
:102A68000020FDF707FF0020FDF704FF0020FDF719
:102A780001FF0020FDF7FEFE0020FDF7FBFE002011
:102A8800FDF7F8FE0020FDF7F5FE0020FDF7F2FE49
:102A98000020FDF7EFFE0020FDF7ECFE0020FDF71B
:102AA800E9FE0020FDF7E6FEE020FDF7BFFE162058
:102AB800FDF7E0FE0020FDF7DDFE1C20FDF7DAFE45
:102AC8000020FDF7D7FE2120FDF7D4FE0020FDF7FA
:102AD800D1FE3620FDF7CEFE0020FDF7CBFE4620C6
:102AE800FDF7C8FE0020FDF7C5FE5220FDF7C2FE27
:102AF8000020FDF7BFFE6420FDF7BCFE0020FDF7B7
:102B0800B9FE7A20FDF7B6FE0020FDF7B3FE8B2054
:102B1800FDF7B0FE0020FDF7ADFE9920FDF7AAFEF7
:102B28000020FDF7A7FEA820FDF7A4FE0020FDF772
:102B3800A1FEB920FDF79EFE0020FDF79BFEC420F4
:102B4800FDF798FE0020FDF795FECA20FDF792FEDE
:102B58000020FDF78FFED220FDF78CFE0020FDF748
:102B680089FED920FDF786FE0020FDF783FEE020D0
:102B7800FDF780FE0020FDF77DFEF320FDF77AFECD
:102B88000020FDF777FEE120FDF750FE1620FDF747
:102B980071FE0020FDF76EFE1C20FDF76BFE002085
:102BA800FDF768FE2220FDF765FE0020FDF762FEB6
:102BB8003620FDF75FFE0020FDF75CFE4520FDF79F
:102BC80059FE0020FDF756FE5220FDF753FE002067
:102BD800FDF750FE6420FDF74DFE0020FDF74AFE8C
:102BE8007A20FDF747FE0020FDF744FE8B20FDF715
:102BF80041FE0020FDF73EFE9920FDF73BFE002038
:102C0800FDF738FEA820FDF735FE0020FDF732FE5F
:102C1800B920FDF72FFE0020FDF72CFEC420FDF79C
:102C280029FE0020FDF726FECA20FDF723FE00201E
:102C3800FDF720FED220FDF71DFE0020FDF71AFE4D
:102C4800D820FDF717FE0020FDF714FEE020FDF761
:102C580011FE0020FDF70EFEF320FDF70BFE00200D
:102C6800FDF708FEE220FDF7E1FD0520FDF702FE75
:102C78000020FDF7FFFD0B20FDF7FCFD0020FDF710
:102C8800F9FD1B20FDF7F6FD0020FDF7F3FD3420CC
:102C9800FDF7F0FD0020FDF7EDFD4420FDF7EAFD0E
:102CA8000020FDF7E7FD4F20FDF7E4FD0020FDF7CC
:102CB800E1FD6120FDF7DEFD0020FDF7DBFD792059
:102CC800FDF7D8FD0020FDF7D5FD8820FDF7D2FDE2
:102CD8000020FDF7CFFD9720FDF7CCFD0020FDF784
:102CE800C9FDA620FDF7C6FD0020FDF7C3FDB720EE
:102CF800FDF7C0FD0020FDF7BDFDC220FDF7BAFDC0
:102D08000020FDF7B7FDC720FDF7B4FD0020FDF753
:102D1800B1FDD120FDF7AEFD0020FDF7ABFDD620BB
:102D2800FDF7A8FD0020FDF7A5FDDD20FDF7A2FDBC
:102D38000020FDF79FFDF320FDF79CFD0020FDF727
:102D480099FDE320FDF772FD0520FDF793FD0020B6
:102D5800FDF790FD0A20FDF78DFD0020FDF78AFDA7
:102D68001C20FDF787FD0020FDF784FD3320FDF7CB
:102D780081FD0020FDF77EFD4420FDF77BFD00204E
:102D8800FDF778FD5020FDF775FD0020FDF772FD79
:102D98006220FDF76FFD0020FDF76CFD7820FDF740
:102DA80069FD0020FDF766FD8820FDF763FD002022
:102DB800FDF760FD9720FDF75DFD0020FDF75AFD4A
:102DC800A620FDF757FD0020FDF754FDB720FDF7BD
:102DD80051FD0020FDF74EFDC220FDF74BFD002000
:102DE800FDF748FDC720FDF745FD0020FDF742FD32
:102DF800D120FDF73FFD0020FDF73CFDD520FDF774
:102E080039FD0020FDF736FDDD20FDF733FD0020FC
:102E1800FDF730FDF320FDF72DFD0020FDF72AFD1D
:102E2800E420FDF703FD0120FDF724FD0020FDF758
:102E380021FD0120FDF71EFD0020FDF71BFD0220EE
:102E4800FDF718FD0020FDF715FD2A20FDF712FDFE
:102E58000020FDF70FFD3C20FDF70CFD0020FDF7DD
:102E680009FD4B20FDF706FD0020FDF703FD5D2061
:102E7800FDF700FD0020FDF7FDFC7420FDF7FAFCCE
:102E88000020FDF7F7FC8420FDF7F4FC0020FDF797
:102E9800F1FC9320FDF7EEFC0020FDF7EBFCA220EF
:102EA800FDF7E8FC0020FDF7E5FCB320FDF7E2FCA8
:102EB8000020FDF7DFFCBE20FDF7DCFC0020FDF75D
:102EC800D9FCC420FDF7D6FC0020FDF7D3FCCD20AB
:102ED800FDF7D0FC0020FDF7CDFCD320FDF7CAFCA0
:102EE8000020FDF7C7FCDD20FDF7C4FC0020FDF73E
:102EF800C1FCF320FDF7BEFC0020FDF7BBFCE5207C
:102F0800FDF794FC0020FDF7B5FC0020FDF7B2FCAE
:102F18000020FDF7AFFC0020FDF7ACFC0220FDF718
:102F2800A9FC0020FDF7A6FC2920FDF7A3FC002042
:102F3800FDF7A0FC3C20FDF79DFC0020FDF79AFC66
:102F48004B20FDF797FC0020FDF794FC5D20FDF772
:102F580091FC0020FDF78EFC7420FDF78BFC00200F
:102F6800FDF788FC8420FDF785FC0020FDF782FC36
:102F78009320FDF77FFC0020FDF77CFCA220FDF7E5
:102F880079FC0020FDF776FCB320FDF773FC0020E8
:102F9800FDF770FCBE20FDF76DFC0020FDF76AFC14
:102FA800C420FDF767FC0020FDF764FCCD20FDF789
:102FB80061FC0020FDF75EFCD320FDF75BFC0020E0
:102FC800FDF758FCDC20FDF755FC0020FDF752FC0E
:102FD800F320FDF74FFC0020FDF74CFCE620FDF741
:102FE80025FC1120FDF746FC0020FDF743FC3420AA
:102FF800FDF740FC0020FDF73DFC5620FDF73AFCAC
:103008000020FDF737FC7620FDF734FC0020FDF7A3
:1030180031FC7720FDF72EFC0020FDF72BFC662005
:10302800FDF728FC0020FDF725FC8820FDF722FC91
:103038000020FDF71FFC9920FDF71CFC0020FDF780
:1030480019FCBB20FDF716FC0020FDF713FC9920A6
:10305800FDF710FC0020FDF70DFC6620FDF70AFCCB
:103068000020FDF707FC5520FDF704FC0020FDF7C4
:1030780001FC5520FDF7FEFB0020FDF7FBFB45207A
:10308800FDF7F8FB0020FDF7F5FB4320FDF7F2FB09
:103098000020FDF7EFFB4420FDF7ECFB0020FDF7D7
:1030A800E9FBE720FDF7C2FB3220FDF7E3FB002038
:1030B800FDF7E0FB5520FDF7DDFB0020FDF7DAFB0F
:1030C8007620FDF7D7FB0020FDF7D4FB6620FDF73F
:1030D800D1FB0020FDF7CEFB6720FDF7CBFB0020DE
:1030E800FDF7C8FB6720FDF7C5FB0020FDF7C2FB15
:1030F8008720FDF7BFFB0020FDF7BCFB9920FDF7FB
:10310800B9FB0020FDF7B6FBBB20FDF7B3FB0020A1
:10311800FDF7B0FB9920FDF7ADFB0020FDF7AAFBFA
:103128007720FDF7A7FB0020FDF7A4FB4420FDF75F
:10313800A1FB0020FDF79EFB5620FDF79BFB00201E
:10314800FDF798FB2320FDF795FB0020FDF792FB88
:103158003320FDF78FFB0020FDF78CFB4520FDF7A2
:1031680089FB0020FDF786FBE820FDF75FFB0020C8
:10317800FDF780FB0020FDF77DFB9920FDF77AFB2A
:103188000020FDF777FB8720FDF774FB0020FDF793
:1031980071FB8820FDF76EFB0020FDF76BFB7720A5
:1031A800FDF768FB0020FDF765FB6620FDF762FB75
:1031B8000020FDF75FFB8820FDF75CFB0020FDF792
:1031C80059FBAA20FDF756FB0020FDF753FBBB2057
:1031D800FDF750FB0020FDF74DFB9920FDF74AFB5A
:1031E8000020FDF747FB6620FDF744FB0020FDF7B4
:1031F80041FB5520FDF73EFB0020FDF73BFB55202A
:10320800FDF738FB0020FDF735FB4420FDF732FBC6
:103218000020FDF72FFB4420FDF72CFB0020FDF7D5
:1032280029FB5520FDF726FB0020FDF723FBE920AD
:10323800FDF7FCFAAA20FDF71DFB0020FDF71AFB9D
:103248000020FDF717FB0020FDF714FB0020FDF719
:10325800EDFAAA20FDF70EFBCF20FDF7E7FA0020D4
:10326800FDF708FB0020FDF705FB0020FDF702FB3A
:103278000020FDF7FFFA0020FDF7FCFA0020FDF71B
:10328800F9FA0020FDF7F6FA0020FDF7F3FA00201E
:10329800FDF7F0FA0020FDF7EDFA0020FDF7EAFA55
:1032A8000020FDF7E7FA0020FDF7E4FA0020FDF71B
:1032B800E1FA0020FDF7DEFA0020FDF7DBFA002036
:1032C800FDF7D8FAF020FDF7B1FA0020FDF7D2FAA1
:1032D8005020FDF7CFFA0020FDF7CCFA0020FDF7CB
:1032E800C9FA0020FDF7C6FAF320FDF79FFA00207F
:1032F800FDF7C0FAF920FDF799FA0620FDF7BAFAAA
:103308001020FDF7B7FA2920FDF7B4FA0020FDF7E1
:10331800B1FA3A20FDF78AFA5520FDF7ABFA1120E9
:10332800FDF784FA642003F09BF92920FDF77EFA63
:103338003520FDF77BFA0020FDF79CFA5120FDF7B8
:1033480075FAFF20FDF796FA5320FDF76FFA2C2047
:10335800FDF790FA5520FDF769FA8220FDF78AFA01
:103368002C20FDF763FA02F0A1BC044B9B8845F2C0
:103378001052934240F0828702E000BF30000020E4
:1033880055214FF47040FDF7DDFAAA214FF20100F4
:10339800FDF7D8FA52214FF20200FDF7D3FA0821BF
:1033A8004FF20300FDF7CEFA01214FF20400FDF7BA
:1033B800C9FA0D214FF43040FDF7C4FA0D214BF244
:1033C8000100FDF7BFFA0D214BF20200FDF7BAFA32
:1033D80034214FF43640FDF7B5FA34214BF2016041
:1033E800FDF7B0FA34214BF20260FDF7ABFA0D217C
:1033F8004FF43140FDF7A6FA0D214BF20110FDF70D
:10340800A1FA0D214BF20210FDF79CFA34214FF47A
:103418003740FDF797FA34214BF20170FDF792FA25
:1034280034214BF20270FDF78DFA00214FF432403F
:10343800FDF788FA00214BF20120FDF783FA0021FD
:103448004BF20220FDF77EFA24214FF43840FDF7B5
:1034580079FA24214BF60100FDF774FA24214BF682
:103468000200FDF76FFA01214FF43F40FDF76AFAB9
:103478000F214FF43340FDF765FA0F214BF201306D
:10348800FDF760FA0F214BF20230FDF75BFA3421A9
:103498004FF43940FDF756FA34214BF60110FDF789
:1034A80051FA34214BF60210FDF74CFA08214FF47B
:1034B8003540FDF747FA08214BF20150FDF742FA73
:1034C80008214BF20250FDF73DFA03214FF4424028
:1034D800FDF738FA24214FF43A40FDF733FA242156
:1034E8004BF60120FDF72EFA24214BF60220FDF7BA
:1034F80029FA00214FF43C40FDF724FA78214BF6D5
:103508000140FDF71FFA00214BF60240FDF71AFAB9
:1035180000214FF43D40FDF715FA78214BF6015094
:10352800FDF710FA00214BF60250FDF70BFA0021C7
:103538004FF43E40FDF706FA64214BF60160FDF7B3
:1035480001FA00214FF45140FDF7FCF933214DF207
:103558000110FDF7F7F900214DF20210FDF7F2F91D
:1035680034214DF20310FDF7EDF900214DF204105E
:10357800FDF7E8F93A214DF20510FDF7E3F90021CE
:103588004DF20610FDF7DEF94A214DF20710FDF75E
:10359800D9F900214DF20810FDF7D4F95C214DF25C
:1035A8000910FDF7CFF900214DF20A10FDF7CAF90D
:1035B80081214DF20B10FDF7C5F900214DF20C10D9
:1035C800FDF7C0F9A6214DF20D10FDF7BBF900215A
:1035D8004DF20E10FDF7B6F9E5214DF20F10FDF78B
:1035E800B1F901214DF21010FDF7ACF913214DF29C
:1035F8001110FDF7A7F901214DF21210FDF7A2F9FC
:1036080054214DF21310FDF79DF901214DF21410CC
:10361800FDF798F982214DF21510FDF793F9012174
:103628004DF21610FDF78EF9CA214DF21710FDF76D
:1036380089F902214DF21810FDF784F900214DF2A5
:103648001910FDF77FF902214DF21A10FDF77AF9EA
:1036580001214DF21B10FDF775F902214DF21C10E6
:10366800FDF770F934214DF21D10FDF76BF90221B9
:103678004DF21E10FDF766F967214DF21F10FDF798
:1036880061F902214DF22010FDF75CF984214DF219
:103698002110FDF757F902214DF22210FDF752F9DA
:1036A800A4214DF22310FDF74DF902214DF224100B
:1036B800FDF748F9B7214DF22510FDF743F902212E
:1036C8004DF22610FDF73EF9CF214DF22710FDF7F8
:1036D80039F902214DF22810FDF734F9DE214DF2B7
:1036E8002910FDF72FF902214DF22A10FDF72AF9CA
:1036F800F2214DF22B10FDF725F902214DF22C1085
:10370800FDF720F9FE214DF22D10FDF71BF90321DD
:103718004DF22E10FDF716F910214DF22F10FDF77E
:1037280011F903214DF23010FDF70CF933214DF258
:103738003110FDF707F903214DF23210FDF702F9B8
:103748006D214DF23310FDF7FDF800214FF4524082
:10375800FDF7F8F833214DF20120FDF7F3F80021C9
:103768004DF20220FDF7EEF834214DF20320FDF76B
:10377800E9F800214DF20420FDF7E4F83A214DF272
:103788000520FDF7DFF800214DF20620FDF7DAF8F5
:103798004A214DF20720FDF7D5F800214DF2082007
:1037A800FDF7D0F85C214DF20920FDF7CBF8002198
:1037B8004DF20A20FDF7C6F881214DF20B20FDF7E6
:1037C800C1F800214DF20C20FDF7BCF8A6214DF2FE
:1037D8000D20FDF7B7F800214DF20E20FDF7B2F8E5
:1037E800E5214DF20F20FDF7ADF801214DF2102033
:1037F800FDF7A8F813214DF21120FDF7A3F80121D8
:103808004DF21220FDF79EF854214DF21320FDF7DA
:1038180099F801214DF21420FDF794F882214DF218
:103828001520FDF78FF801214DF21620FDF78AF8D3
:10383800CA214DF21720FDF785F802214DF2182014
:10384800FDF780F800214DF21920FDF77BF80221E1
:103858004DF21A20FDF776F801214DF21B20FDF7F5
:1038680071F802214DF21C20FDF76CF834214DF25D
:103878001D20FDF767F802214DF21E20FDF762F8C2
:1038880067214DF21F20FDF75DF802214DF220203F
:10389800FDF758F884214DF22120FDF753F8022155
:1038A8004DF22220FDF74EF8A4214DF22320FDF71A
:1038B80049F802214DF22420FDF744F8B7214DF2D2
:1038C8002520FDF73FF802214DF22620FDF73AF8B2
:1038D800CF214DF22720FDF735F802214DF228209F
:1038E800FDF730F8DE214DF22920FDF72BF80221F3
:1038F8004DF22A20FDF726F8F2214DF22B20FDF794
:1039080021F802214DF22C20FDF71CF8FE214DF282
:103918002D20FDF717F803214DF22E20FDF712F8A0
:1039280010214DF22F20FDF70DF803214DF2302024
:10393800FDF708F833214DF23120FDF703F8032194
:103948004DF23220FCF7FEFF6D214DF23320FCF7DB
:10395800F9FF00214FF45340FCF7F4FF33214DF2F7
:103968000130FCF7EFFF00214DF20230FCF7EAFFCF
:1039780034214DF20330FCF7E5FF00214DF204300D
:10398800FCF7E0FF3A214DF20530FCF7DBFF0021A0
:103998004DF20630FCF7D6FF4A214DF20730FCF70E
:1039A800D1FF00214DF20830FCF7CCFF5C214DF22D
:1039B8000930FCF7C7FF00214DF20A30FCF7C2FFBF
:1039C80081214DF20B30FCF7BDFF00214DF20C3088
:1039D800FCF7B8FFA6214DF20D30FCF7B3FF00212C
:1039E8004DF20E30FCF7AEFFE5214DF20F30FCF73B
:1039F800A9FF01214DF21030FCF7A4FF13214DF26D
:103A08001130FCF79FFF01214DF21230FCF79AFFAD
:103A180054214DF21330FCF795FF01214DF214307B
:103A2800FCF790FF82214DF21530FCF78BFF012146
:103A38004DF21630FCF786FFCA214DF21730FCF71D
:103A480081FF02214DF21830FCF77CFF00214DF276
:103A58001930FCF777FF02214DF21A30FCF772FF9C
:103A680001214DF21B30FCF76DFF02214DF21C3095
:103A7800FCF768FF34214DF21D30FCF763FF02218B
:103A88004DF21E30FCF75EFF67214DF21F30FCF748
:103A980059FF02214DF22030FCF754FF84214DF2EA
:103AA8002130FCF74FFF02214DF22230FCF74AFF8C
:103AB800A4214DF22330FCF745FF02214DF22430BA
:103AC800FCF740FFB7214DF22530FCF73BFF022100
:103AD8004DF22630FCF736FFCF214DF22730FCF7A8
:103AE80031FF02214DF22830FCF72CFFDE214DF288
:103AF8002930FCF727FF02214DF22A30FCF722FF7C
:103B0800F2214DF22B30FCF71DFF02214DF22C3033
:103B1800FCF718FFFE214DF22D30FCF713FF0321AF
:103B28004DF22E30FCF70EFF10214DF22F30FCF72E
:103B380009FF03214DF23030FCF704FF33214DF229
:103B48003130FCF7FFFE03214DF23230FCF7FAFE6C
:103B58006D214DF23330FCF7F5FE00214FF454404F
:103B6800FCF7F0FE33214DF20140FCF7EBFE00219B
:103B78004DF20240FCF7E6FE34214DF20340FCF71B
:103B8800E1FE00214DF20440FCF7DCFE3A214DF243
:103B98000540FCF7D7FE00214DF20640FCF7D2FEA7
:103BA8004A214DF20740FCF7CDFE00214DF20840B6
:103BB800FCF7C8FE5C214DF20940FCF7C3FE00216A
:103BC8004DF20A40FCF7BEFE81214DF20B40FCF796
:103BD800B9FE00214DF20C40FCF7B4FEA6214DF2CF
:103BE8000D40FCF7AFFE00214DF20E40FCF7AAFE97
:103BF800E5214DF20F40FCF7A5FE01214DF21040E2
:103C0800FCF7A0FE13214DF21140FCF79BFE0121A9
:103C18004DF21240FCF796FE54214DF21340FCF78A
:103C280091FE01214DF21440FCF78CFE82214DF2E9
:103C38001540FCF787FE01214DF21640FCF782FE85
:103C4800CA214DF21740FCF77DFE02214DF21840C3
:103C5800FCF778FE00214DF21940FCF773FE0221B3
:103C68004DF21A40FCF76EFE01214DF21B40FCF7A5
:103C780069FE02214DF21C40FCF764FE34214DF22E
:103C88001D40FCF75FFE02214DF21E40FCF75AFE74
:103C980067214DF21F40FCF755FE02214DF22040EE
:103CA800FCF750FE84214DF22140FCF74BFE022127
:103CB8004DF22240FCF746FEA4214DF22340FCF7CA
:103CC80041FE02214DF22440FCF73CFEB7214DF2A3
:103CD8002540FCF737FE02214DF22640FCF732FE64
:103CE800CF214DF22740FCF72DFE02214DF228404E
:103CF800FCF728FEDE214DF22940FCF723FE0221C5
:103D08004DF22A40FCF71EFEF2214DF22B40FCF743
:103D180019FE02214DF22C40FCF714FEFE214DF253
:103D28002D40FCF70FFE03214DF22E40FCF70AFE52
:103D380010214DF22F40FCF705FE03214DF23040D3
:103D4800FCF700FE33214DF23140FCF7FBFD032167
:103D58004DF23240FCF7F6FD6D214DF23340FCF791
:103D6800F1FD00214FF45540FCF7ECFD33214DF2F5
:103D78000150FCF7E7FD00214DF20250FCF7E2FD8F
:103D880034214DF20350FCF7DDFD00214DF20450C3
:103D9800FCF7D8FD3A214DF20550FCF7D3FD002180
:103DA8004DF20650FCF7CEFD4A214DF20750FCF7C4
:103DB800C9FD00214DF20850FCF7C4FD5C214DF20D
:103DC8000950FCF7BFFD00214DF20A50FCF7BAFD7F
:103DD80081214DF20B50FCF7B5FD00214DF20C503E
:103DE800FCF7B0FDA6214DF20D50FCF7ABFD00210C
:103DF8004DF20E50FCF7A6FDE5214DF20F50FCF7F1
:103E0800A1FD01214DF21050FCF79CFD13214DF24C
:103E18001150FCF797FD01214DF21250FCF792FD6D
:103E280054214DF21350FCF78DFD01214DF2145031
:103E3800FCF788FD82214DF21550FCF783FD012126
:103E48004DF21650FCF77EFDCA214DF21750FCF7D3
:103E580079FD02214DF21850FCF774FD00214DF256
:103E68001950FCF76FFD02214DF21A50FCF76AFD5C
:103E780001214DF21B50FCF765FD02214DF21C504B
:103E8800FCF760FD34214DF21D50FCF75BFD02216B
:103E98004DF21E50FCF756FD67214DF21F50FCF7FE
:103EA80051FD02214DF22050FCF74CFD84214DF2CA
:103EB8002150FCF747FD02214DF22250FCF742FD4C
:103EC800A4214DF22350FCF73DFD02214DF2245070
:103ED800FCF738FDB7214DF22550FCF733FD0221E0
:103EE8004DF22650FCF72EFDCF214DF22750FCF75E
:103EF80029FD02214DF22850FCF724FDDE214DF268
:103F08002950FCF71FFD02214DF22A50FCF71AFD3B
:103F1800F2214DF22B50FCF715FD02214DF22C50E9
:103F2800FCF710FDFE214DF22D50FCF70BFD03218F
:103F38004DF22E50FCF706FD10214DF22F50FCF7E4
:103F480001FD03214DF23050FCF7FCFC33214DF20A
:103F58003150FCF7F7FC03214DF23250FCF7F2FC2C
:103F68006D214DF23350FCF7EDFC00214FF4564023
:103F7800FCF7E8FC33214DF20160FCF7E3FC00217B
:103F88004DF20260FCF7DEFC34214DF20360FCF7D1
:103F9800D9FC00214DF20460FCF7D4FC3A214DF223
:103FA8000560FCF7CFFC00214DF20660FCF7CAFC67
:103FB8004A214DF20760FCF7C5FC00214DF208606C
:103FC800FCF7C0FC5C214DF20960FCF7BBFC00214A
:103FD8004DF20A60FCF7B6FC81214DF20B60FCF74C
:103FE800B1FC00214DF20C60FCF7ACFCA6214DF2AF
:103FF8000D60FCF7A7FC00214DF20E60FCF7A2FC57
:10400800E5214DF20F60FCF79DFC01214DF2106097
:10401800FCF798FC13214DF21160FCF793FC012189
:104028004DF21260FCF78EFC54214DF21360FCF740
:1040380089FC01214DF21460FCF784FC82214DF2C9
:104048001560FCF77FFC01214DF21660FCF77AFC45
:10405800CA214DF21760FCF775FC02214DF2186079
:10406800FCF770FC00214DF21960FCF76BFC022193
:104078004DF21A60FCF766FC01214DF21B60FCF75B
:1040880061FC02214DF21C60FCF75CFC34214DF20E
:104098001D60FCF757FC02214DF21E60FCF752FC34
:1040A80067214DF21F60FCF74DFC02214DF22060A4
:1040B800FCF748FC84214DF22160FCF743FC022107
:1040C8004DF22260FCF73EFCA4214DF22360FCF780
:1040D80039FC02214DF22460FCF734FCB7214DF283
:1040E8002560FCF72FFC02214DF22660FCF72AFC24
:1040F800CF214DF22760FCF725FC02214DF2286004
:10410800FCF720FCDE214DF22960FCF71BFC0221A4
:104118004DF22A60FCF716FCF2214DF22B60FCF7F9
:1041280011FC02214DF22C60FCF70CFCFE214DF233
:104138002D60FCF707FC03214DF22E60FCF702FC12
:1041480010214DF22F60FCF7FDFB03214DF230608A
:10415800FCF7F8FB33214DF23160FCF7F3FB032148
:104168004DF23260FCF7EEFB6D214DF23360FCF747
:10417800E9FB55214FF47040FCF7E4FBAA214FF20C
:104188000100FCF7DFFB52214FF20200FCF7DAFBDB
:1041980008214FF20300FCF7D5FB00214FF2040081
:1041A800FCF7D0FBCC214FF43140FCF7CBFB0021CE
:1041B8004BF20110FCF7C6FB05214FF43640FCF723
:1041C800C1FB70214FF43740FCF7BCFB70214BF268
:1041D8000170FCF7B7FB01214FF43840FCF7B2FB44
:1041E80003214BF60100FCF7ADFB03214BF602005F
:1041F800FCF7A8FB03214BF60300FCF7A3FB022105
:104208004FF43C40FCF79EFB00214BF60140FCF7C5
:1042180099FB00214BF60240FCF794FBD0214FF4A8
:104228004940FCF78FFB02214CF60110FCF78AFB92
:1042380050214CF60210FCF785FB50214CF6031078
:10424800FCF780FB50214CF60410FCF77BFB0021A7
:104258004FF45450FCF776FB55214FF46850FCF7A7
:1042680071FB4FF48850FCF7E1FA012002F0F8F9ED
:104278004FF42450FCF7DAFA01F018BDEC4B9B8898
:1042880049F22532934240F0D78047F6F001E52005
:10429800FCF758FB4FF480710120FCF753FB4FF4F7
:1042A800E0610220FCF74EFB41F230010320FCF7ED
:1042B80049FB00210420FCF745FB40F202210820BD
:1042C800FCF740FB00210920FCF73CFB00210A20F9
:1042D800FCF738FB00210C20FCF734FB00210D20F3
:1042E800FCF730FB00210F20FCF72CFB00211020ED
:1042F800FCF728FB07211120FCF724FB00211220E2
:10430800FCF720FB00211320FCF71CFB00210720F1
:10431800FCF718FB41F290611020FCF713FB40F208
:1043280027211120FCF70EFB9D211220FCF70AFB28
:104338004FF4C8511320FCF705FB25212920FCF771
:1043480001FB0D212B20FCF7FDFA07213020FCF79B
:10435800F9FA40F203313120FCF7F4FA0321322054
:10436800FCF7F0FA40F206213520FCF7EBFA0821B9
:104378003620FCF7E7FA40F206413720FCF7E2FA6C
:104388004FF441713820FCF7DDFA07213920FCF79A
:10439800D9FA40F202613C20FCF7D4FA08213D200A
:1043A800FCF7D0FA00215020FCF7CCFAEF2151207D
:1043B800FCF7C8FA00215220FCF7C4FA40F23F117A
:1043C8005320FCF7BFFA4FF427416020FCF7BAFAF4
:1043D80001216120FCF7B6FA00216A20FCF7B2FA45
:1043E80000218020FCF7AEFA00218120FCF7AAFA10
:1043F80000218220FCF7A6FA00218320FCF7A2FA0C
:1044080000218420FCF79EFA00218520FCF79AFA07
:1044180010219020FCF796FA4FF4C0619220FCF727
:1044280091FA40F233110720FCF78CFA2221002080
:10443800FCF788FA01F03ABC7D4B9B8849F2283298
:10444800934240F0F78041F28F01EC20FCF77AFAB2
:1044580041F23421EF20FCF775FA4FF48071012006
:10446800FCF770FA4FF4E0610220FCF76BFA41F2B6
:1044780030010320FCF766FA00210420FCF762FAF9
:1044880040F202210820FCF75DFA00210920FCF720
:1044980059FA00210A20FCF755FA01210C20FCF7F3
:1044A80051FA00210D20FCF74DFA00210F20FCF7EE
:1044B80049FA00211020FCF745FA07211120FCF7E2
:1044C80041FA00211220FCF73DFA00211320FCF7E5
:1044D80039FA01210720FCF735FA322002F0C0F83A
:1044E80041F290411020FCF72DFA40F227211120CB
:1044F800FCF728FA322002F0B3F88A211220FCF7E0
:1045080021FA322002F0ACF84FF4D0511320FCF716
:1045180019FA06212920FCF715FA0D212B20FCF7A2
:1045280011FA322002F09CF800212020FCF70AFA48
:1045380000212120FCF706FA322002F091F8002130
:104548003020FCF7FFF940F204613120FCF7FAF95A
:1045580040F205313220FCF7F5F900213520FCF74F
:10456800F1F940F609413620FCF7ECF94FF40171F6
:104578003720FCF7E7F940F201313820FCF7E2F97F
:1045880040F207713920FCF7DDF900213C20FCF7E7
:10459800D9F940F60A213D20FCF7D4F9322002F07F
:1045A8005FF800215020FCF7CDF9EF215120FCF7EE
:1045B800C9F900215220FCF7C5F940F23F115320F8
:1045C800FCF7C0F94FF427416020FCF7BBF9012143
:1045D8006120FCF7B7F900216A20FCF7B3F9002144
:1045E8008020FCF7AFF900218120FCF7ABF900210E
:1045F8008220FCF7A7F900218320FCF7A3F900210A
:104608008420FCF79FF900218520FCF79BF91021F5
:104618009020FCF797F94FF4C0619220FCF792F9CB
:1046280040F233110720FCF78DF901F03FBB00BFC2
:1046380030000020CE4B9B8849F22032934240F054
:10464800AD8000210020FCF77DF94FF48071012036
:10465800FCF778F94FF4E0610220FCF773F941F2B6
:1046680030010320FCF76EF900210420FCF76AF9F9
:1046780040F202210820FCF765F900210920FCF727
:1046880061F900210A20FCF75DF901210C20FCF7F3
:1046980059F900210D20FCF755F900210F20FCF7EE
:1046A80051F9322001F0DCFF40F201110720FCF73C
:1046B80049F9322001F0D4FF4FF486511020FCF75D
:1046C80041F907211120FCF73DF94FF488711220B8
:1046D800FCF738F94FF430611320FCF733F9002167
:1046E8002920FCF72FF944F210012B20FCF72AF9B6
:1046F80000215020FCF726F9EF215120FCF722F980
:1047080000215220FCF71EF940F23F115320FCF71C
:1047180019F94FF41C516020FCF714F901216120AC
:10472800FCF710F900216A20FCF70CF90021802021
:10473800FCF708F900218120FCF704F90021822008
:10474800FCF700F900218320FCF7FCF80021842005
:10475800FCF7F8F800218520FCF7F4F810219020E8
:10476800FCF7F0F800219220FCF7ECF801219320E7
:10477800FCF7E8F84FF488719520FCF7E3F800217E
:104788009720FCF7DFF800219820FCF7DBF840F2CF
:1047980073110720FCF7D6F801F088BA744B9B8890
:1047A80049F23132934240F0E58041F21401E720AA
:1047B800FCF7C8F84FF480710120FCF7C3F84FF4F8
:1047C80000710220FCF7BEF841F238010320FCF723
:1047D800B9F840F202210820FCF7B4F800210920BA
:1047E800FCF7B0F800210A20FCF7ACF800210C20F7
:1047F800FCF7A8F800210D20FCF7A4F800210F20F1
:10480800FCF7A0F800211020FCF79CF807211120E4
:10481800FCF798F800211220FCF794F800211320E7
:10482800FCF790F8C82001F01BFF41F290611020BE
:10483800FCF788F840F227211120FCF783F8322092
:1048480001F00EFF0C211220FCF77CF8322001F059
:1048580007FF4FF400611320FCF774F81121292099
:10486800FCF770F80B212B20FCF76CF8322001F0D4
:10487800F7FE00212020FCF765F840F23F112120C7
:10488800FCF760F800213020FCF75CF84FF48371E6
:104898003120FCF757F800213220FCF753F84FF489
:1048A80001713520FCF74EF841F20A613620FCF719
:1048B80049F840F207713720FCF744F84FF4837148
:1048C8003820FCF73FF840F207713920FCF73AF836
:1048D80040F202413C20FCF735F840F60F413D20FC
:1048E800FCF730F800215020FCF72CF8EF2151207C
:1048F800FCF728F800215220FCF724F840F23F1179
:104908005320FCF71FF84FF41C516020FCF71AF8ED
:1049180001216120FCF716F800216A20FCF712F843
:1049280000218020FCF70EF800218120FCF70AF80E
:1049380000218220FCF706F800218320FCF702F80A
:1049480000218420FBF7FEFF00218520FBF7FAFFFA
:1049580010219020FBF7F6FF4FF4C0619220FBF77F
:10496800F1FF40F233110720FBF7ECFF01F09EB98D
:1049780030000020E24B9B8845F20842934240F009
:10498800A3804FF480710120FBF7DCFF4FF4E06156
:104998000220FBF7D7FF41F230010320FBF7D2FFDB
:1049A80000210420FBF7CEFF40F207210820FBF787
:1049B800C9FF00210920FBF7C5FF00210A20FBF7EA
:1049C800C1FF00210C20FBF7BDFF00210D20FBF7E4
:1049D800B9FF00210F20FBF7B5FF142001F040FEBE
:1049E80041F2B0611020FBF7ADFF01211120FBF768
:1049F800A9FF01211720FBF7A5FF4FF49C71122096
:104A0800FBF7A0FF4FF400611320FBF79BFF092180
:104A18002920FBF797FF09212A20FBF793FF0021A4
:104A2800A420FBF78FFF00215020FBF78BFFEF211D
:104A38005120FBF787FF00215220FBF783FF40F24C
:104A48003F115320FBF77EFF4FF41C516020FBF70A
:104A580079FF01216120FBF775FF00216A20FBF730
:104A680071FF00218020FBF76DFF00218120FBF7FB
:104A780069FF00218220FBF765FF00218320FBF7F7
:104A880061FF00218420FBF75DFF00218520FBF7F3
:104A980059FF13219020FBF755FF00219220FBF7C7
:104AA80051FF03219320FBF74DFF4FF488719520A8
:104AB800FBF748FF40F273110720FBF743FF322052
:104AC80001F0CEFD01F0F2B88D4B9B8841F2055202
:104AD800934240F0178100210720FBF733FF322073
:104AE80001F0BEFD4FF48E711220FBF72BFF012160
:104AF800A420FBF727FF0F210820FBF723FF08213D
:104B08000A20FBF71FFF08210D20FBF71BFF40F2CF
:104B180007713020FBF716FF07213120FBF712FF42
:104B280040F203613220FBF70DFF4FF4E0613320C0
:104B3800FBF708FF40F202213420FBF703FF0221B4
:104B48003520FBF7FFFE41F60F713620FBF7FAFE22
:104B580040F207713720FBF7F5FE00213820FBF7FC
:104B6800F1FE00213920FBF7EDFE40F207713A20F3
:104B7800FBF7E8FE00213B20FBF7E4FE07213C2081
:104B8800FBF7E0FE00213D20FBF7DCFE322001F0C0
:104B980067FD01210720FBF7D5FE01211720FBF750
:104BA800D1FE322001F05CFD4FF4BD511020FBF71F
:104BB800C9FE40F217211120FBF7C4FE4FF48F7194
:104BC8001220FBF7BFFE4FF470611320FBF7BAFE0B
:104BD80000212A20FBF7B6FE0A212920FBF7B2FEA6
:104BE8004FF49F711220FBF7ADFE00215020FBF718
:104BF800A9FEEF215120FBF7A5FE00215220FBF76B
:104C0800A1FE40F23F115320FBF79CFE4FF41C51CC
:104C18006020FBF797FE01216120FBF793FE00213E
:104C28006A20FBF78FFE00218020FBF78BFE002116
:104C38008120FBF787FE00218220FBF783FE0021FD
:104C48008320FBF77FFE00218420FBF77BFE0021F9
:104C58008520FBF777FE13219020FBF773FE4FF4B6
:104C680040719220FBF76EFE05219320FBF76AFE48
:104C780000219520FBF766FE00219720FBF762FED6
:104C880000219820FBF75EFE4FF480710120FBF7AE
:104C980059FE4FF4E0610220FBF754FE41F238015F
:104CA8000320FBF74FFE00210420FBF74BFE0021F9
:104CB8000C20FBF747FE00210F20FBF743FE0021E5
:104CC8002020FBF73FFE00212120FBF73BFE21219E
:104CD8000720FBF737FE142001F0C2FC61210720F2
:104CE800FBF730FE142001F0BBFC40F273110720E3
:104CF800FBF728FE142001F0B3FC00F0D7BF00BF7B
:104D080030000020F04B9B884BF20552934240F054
:104D1800038100210020FBF715FE00210020FBF78E
:104D280011FE00210020FBF70DFE00210020FBF7FB
:104D380009FE0121A420FBF705FE142001F090FCD8
:104D48004FF41C516020FBF7FDFD40F202210820C2
:104D5800FBF7F8FD4FF405713020FBF7F3FD43F244
:104D680015713120FBF7EEFD40F204613220FBF7AC
:104D7800E9FD40F616613320FBF7E4FD42F211210C
:104D88003420FBF7DFFD4FF4A8513520FBF7DAFD9F
:104D980048F207513620FBF7D5FD41F2074137208D
:104DA800FBF7D0FD41F203413820FBF7CBFD202172
:104DB8003920FBF7C7FD1A219020FBF7C3FD00211E
:104DC8001020FBF7BFFD07211120FBF7BBFD0021D9
:104DD8001220FBF7B7FD00211320FBF7B3FD1420C9
:104DE80001F03EFC4FF4E6611020FBF7ABFD40F20A
:104DF80037111120FBF7A6FD142001F031FC4FF408
:104E0800DC711220FBF79EFD142001F029FC4FF401
:104E180070611320FBF796FD80212A20FBF792FD95
:104E280048212920FBF78EFD142001F019FC4FF4CE
:104E380080710120FBF786FD4FF4E0610220FBF74B
:104E480081FD41F238010320FBF77CFD40F202218D
:104E58000820FBF777FD00210A20FBF773FD0021EE
:104E68000C20FBF76FFD00210D20FBF76BFD3021B7
:104E78000E20FBF767FD00215020FBF763FDEF21B3
:104E88005120FBF75FFD00215220FBF75BFD40F24C
:104E98003F115320FBF756FD4FF41C516020FBF7E0
:104EA80051FD01216120FBF74DFD00216A20FBF730
:104EB80049FD11219020FBF745FD4FF4C061922078
:104EC800FBF740FD40F202419320FBF73BFD022136
:104ED8009420FBF737FD142001F0C2FB01210720C5
:104EE800FBF730FD142001F0BBFB61210720FBF725
:104EF80029FD40F273110720FBF724FD0021202033
:104F0800FBF720FD00212120FBF71CFD22210020BA
:104F1800FBF718FD00F0CABE6B4B9B884CF205529C
:104F2800934240F0D38000210020FBF70BFD0021C5
:104F38000020FBF707FD142001F092FB0021002060
:104F4800FBF700FD00210020FBF7FCFC00210020FE
:104F5800FBF7F8FC00210020FBF7F4FC0121A4205A
:104F6800FBF7F0FC142001F07BFB4FF41C51602090
:104F7800FBF7E8FC40F606010820FBF7E3FC40F2EB
:104F880003713020FBF7DEFC01213120FBF7DAFC4E
:104F980004213220FBF7D6FC4FF481713320FBF754
:104FA800D1FC4FF440713420FBF7CCFC40F20311E4
:104FB8003520FBF7C7FC1F213620FBF7C3FC40F266
:104FC80003713720FBF7BEFC01213820FBF7BAFC40
:104FD80004213920FBF7B6FC15219020FBF7B2FC21
:104FE8004FF482611020FBF7ADFC40F247211120FD
:104FF800FBF7A8FC4FF4DE711220FBF7A3FC4FF47B
:1050080060611320FBF79EFC782001F029FB4FF428
:1050180080710120FBF796FC4FF400710220FBF72A
:1050280091FC41F230010320FBF78CFC08210A2097
:10503800FBF788FC00210C20FBF784FC20210E20C4
:10504800FBF780FC00210F20FBF77CFC00212020CF
:10505800FBF778FC00212120FBF774FC3D212A2076
:10506800FBF770FC142001F0FBFA2D212920FBF737
:1050780069FC00215020FBF765FC4DF2EF0151203F
:10508800FBF760FC00215220FBF75CFC40F23F116B
:105098005320FBF757FC00216120FBF753FC00214C
:1050A8006A20FBF74FFC4FF440719220FBF74AFC53
:1050B80005219320FBF746FC4FF480710720FBF78E
:1050C80041FC00F0F3BD00BF30000020C24B9B88BC
:1050D80048F68912934240F0BC8001210020FBF77A
:1050E80031FC4AF6A4010320FBF72CFC00210C201C
:1050F800FBF728FC40F60C010D20FBF723FC4FF4CE
:105108002C510E20FBF71EFCB0211E20FBF71AFCC9
:1051180042F63F310120FBF715FC4FF4C061022035
:10512800FBF710FC00211020FBF70CFC46F278017D
:105138001120FBF707FC00210520FBF703FC0021E9
:105148000620FBF7FFFB4EF61C711620FBF7FAFB57
:1051580003211720FBF7F6FB40F233210720FBF76A
:10516800F1FB00210B20FBF7EDFB00210F20FBF7E3
:10517800E9FB00214120FBF7E5FB00214220FBF77A
:10518800E1FB00214820FBF7DDFB40F23F114920FD
:10519800FBF7D8FB00214A20FBF7D4FB00214B206A
:1051A800FBF7D0FB4FF46F414420FBF7CBFB00210A
:1051B8004520FBF7C7FB40F23F114620FBF7C2FB37
:1051C80040F207713020FBF7BDFB4FF4017131202D
:1051D800FBF7B8FB4FF401713220FBF7B3FB40F249
:1051E80002513320FBF7AEFB40F207513420FBF7A6
:1051F800A9FB4FF401713520FBF7A4FB4FF40171B3
:105208003620FBF79FFB40F202513720FBF79AFB51
:1052180040F202313A20FBF795FB40F202313B2085
:10522800FBF790FB00212320FBF78CFB00212420B7
:10523800FBF788FB4FF400412520FBF783FB002197
:105248004F20FBF77FFB00214E20FBF77BFB00F094
:105258002DBD614B9B8844F23152934240F0BE8091
:1052680001210020FBF76EFB0A2001F0F9F941F259
:1052780028611020FBF766FB0E211220FBF762FB6A
:1052880040F639211320FBF75DFB0A2001F0E8F90D
:1052980040211120FBF756FB50211520FBF752FB4C
:1052A8000A2001F0DDF91E211220FBF74BFB0A2032
:1052B80001F0D6F94FF4B1511020FBF743FB42F649
:1052C80039211320FBF73EFB0A2001F0C9F94FF4FE
:1052D80080710120FBF736FB4FF440710220FBF789
:1052E80031FB41F238010320FBF72CFB40F202218D
:1052F8000820FBF727FB08210A20FBF723FB0021E6
:105308003020FBF71FFB40F202413120FBF71AFB6C
:105318004FF483713220FBF715FB40F20351332021
:10532800FBF710FB4FF482713420FBF70BFB40F2C4
:1053380001313520FBF706FB40F207713620FBF7F9
:1053480001FB40F205313720FBF7FCFA4FF40271FC
:105358003820FBF7F7FA40F60B713920FBF7F2FA21
:1053680002214120FBF7EEFA4FF41C516020FBF7B5
:10537800E9FA01216120FBF7E5FA4FF40471902066
:10538800FBF7E0FA4FF485719220FBF7DBFA042172
:105398009320FBF7D7FA4FF48071A020FBF7D2FADD
:1053A80001210720FBF7CEFA21210720FBF7CAFAD3
:1053B80023210720FBF7C6FA33210720FBF7C2FA9F
:1053C80040F233110720FBF7BDFA0021A020FBF7BC
:1053D800B9FA00F06BBC00BF300000205B4B9B8823
:1053E80044F23552934240F0B38030211520FBF748
:1053F800A9FA10219A20FBF7A5FA20211120FBF722
:10540800A1FA43F228411020FBF79CFA022112204E
:10541800FBF798FA41F238011320FBF793FA28209A
:1054280001F01EF912211220FBF78CFA282001F056
:1054380017F943F220411020FBF784FA43F23801B0
:105448001320FBF77FFA462001F00AF900213020EB
:10545800FBF778FA40F202413120FBF773FA40F289
:1054680007313220FBF76EFA4FF441713320FBF716
:1054780069FA04213420FBF765FA40F2014135202E
:10548800FBF760FA40F207713620FBF75BFA40F24F
:1054980005313720FBF756FA4FF4C2613820FBF785
:1054A80051FA4FF4C2613920FBF74CFA4FF480717E
:1054B8000120FBF747FA4FF440710220FBF742FA4C
:1054C80041F230010320FBF73DFA40F608010820BD
:1054D800FBF738FA08210A20FBF734FA4FF41C517D
:1054E8006020FBF72FFA01216120FBF72BFA4FF41C
:1054F8009F719020FBF726FA4FF480719220FBF7FA
:1055080021FA4FF480719320FBF71CFA4FF44051B5
:10551800A020FBF717FA1021A320FBF713FA0121AB
:105528000720FBF70FFA21210720FBF70BFA2321AD
:105538000720FBF707FA33210720FBF703FA40F2AD
:1055480033110720FBF7FEF9B0E300BF300000205D
:10555800A84B9B8841F66312934240F0A783E22050
:10556800FBF764F9A44B4FF480721A61A24B4FF415
:1055780000725A61A14B1D22DA609F4B80225A614A
:105588009D4B80221A619C4B4FF400721A619A4B12
:105598004FF480721A61984B4FF400725A61974B1E
:1055A8000222DA60944B80225A61934B80221A615E
:1055B800914B4FF400721A618F4B4FF480721A614D
:1055C8008D4B4FF400725A618C4B0422DA608A4B7F
:1055D80080225A61884B80221A61874B4FF40072EF
:1055E8001A61012001F03CF8E020FBF71FF9824B1B
:1055F8004FF480721A61804B4FF400725A617F4BEE
:105608000122DA607C4B80225A617B4B80221A612E
:10561800794B4FF400721A610A2001F021F8E0205A
:10562800FBF704F9744B4FF480721A61724B4FF414
:1056380000725A61714B0322DA606F4B80225A6103
:105648006D4B80221A616C4B4FF400721A610C206A
:1056580001F006F80120FBF7E9F80A2001F000F84C
:10566800E620FBF7E3F8644B4FF480721A61624B53
:105678004FF400725A61614B2F22DA605E4B802230
:105688005A615D4B80221A615B4B4FF400721A61BC
:10569800594B4FF480721A61574B4FF400725A619C
:1056A800564BFF22DA60544B80225A61524B8022BB
:1056B8001A61514B4FF400721A614F4B4FF48072CC
:1056C8001A614D4B4FF400725A614C4BFF22DA605D
:1056D800494B80225A61484B80221A61464B4FF44D
:1056E80000721A61B020FBF7A1F8434B4FF48072A7
:1056F8001A61414B4FF400725A61404B2022DA6024
:105708003D4B80225A613C4B80221A613A4B4FF440
:1057180000721A61384B4FF480721A61364B4FF49D
:1057280000725A61354B0022DA60334B80225A618D
:10573800314B80221A61304B4FF400721A612E4BA4
:105748004FF480721A612C4B4FF400725A612B4B44
:105758000322DA60284B80225A61274B80221A6183
:10576800254B4FF400721A61234B4FF480721A6173
:10577800214B4FF400725A61204B40F21F32DA601D
:105788001D4B80225A611C4B80221A611A4B4FF420
:1057980000721A61184B4FF480721A61164B4FF45D
:1057A80000725A61154B0122DA60134B80225A614C
:1057B800114B80221A61104B4FF400721A610E4B84
:1057C8004FF480721A610C4B4FF400725A610B4B04
:1057D80040F2DF12DA60084B80225A61064B8022C1
:1057E8001A61054B4FF400721A61034B4FF4807233
:1057F80006E000BF3000002000100140000C01400E
:105808001A61A34B4FF400725A61A24B0022DA606E
:105818009F4B80225A619E4B80221A619C4B4FF409
:1058280000721A61B420FBF701F8994B4FF48072AB
:105838001A61974B4FF400725A61964B0422DA6052
:10584800934B80225A61924B80221A61904B4FF4FD
:1058580000721A618E4B4FF480721A618C4B4FF4B0
:1058680000725A618B4B40F21F42DA60884B8022EB
:105878005A61874B80221A61854B4FF400721A6176
:10588800834B4FF480721A61814B4FF400725A6156
:10589800804B0022DA607E4B80225A617C4B80224A
:1058A8001A617B4B4FF400721A61794B4FF4807286
:1058B8001A61774B4FF400725A61764B2E22DA60E8
:1058C800734B80225A61724B80221A61704B4FF4DD
:1058D80000721A616E4B4FF480721A616C4B4FF470
:1058E80000725A616B4B0022DA60694B80225A6160
:1058F800674B80221A61664B4FF400721A61644B41
:105908004FF480721A61624B4FF400725A61614B16
:105918000022DA605E4B80225A615D4B80221A6158
:105928005B4B4FF400721A61594B4FF480721A6145
:10593800574B4FF400725A61564B0022DA60544BB1
:1059480080225A61524B80221A61514B4FF40072E7
:105958001A614F4B4FF480721A614D4B4FF400722D
:105968005A614C4B0022DA60494B80225A61484BFD
:1059780080221A61464B4FF400721A61B620FAF77A
:1059880055FF434B4FF480721A61414B4FF400723C
:105998005A61404B0222DA603D4B80225A613C4BEF
:1059A80080221A613A4B4FF400721A61384B4FF457
:1059B80080721A61364B4FF400725A61354B4FF4BE
:1059C8000372DA60324B80225A61314B80221A61AD
:1059D8002F4B4FF400721A612D4B4FF480721A61ED
:1059E8002B4B4FF400725A612A4B0022DA60284B85
:1059F80080225A61264B80221A61254B4FF400728F
:105A08001A61234B4FF480721A61214B4FF40072D4
:105A18005A61204B1722DA601D4B80225A611C4BB9
:105A280080221A611A4B4FF400721A61184B4FF416
:105A380080721A61164B4FF400725A61154B152289
:105A4800DA60134B80225A61114B80221A61104B85
:105A58004FF400721A610E4B4FF480721A610C4BAE
:105A68004FF400725A610B4B0022DA60084B802217
:105A78005A61074B80221A61054B4FF400721A6174
:105A8800034B4FF480721A61014B4FF4007203E02C
:105A980000100140000C01405A618B4B0022DA6073
:105AA8008A4B80225A61894B80221A61874B4FF4B6
:105AB80000721A61F020FAF7B9FE844B4FF4807235
:105AC8001A61824B4FF400725A617F4B0322DA60ED
