:020000040800F2
:1000000000C00020C50700080D07000813070008FE
:10001000190700081F070008250700080000000056
:10002000000000000000000000000000A13E0008E9
:100030002B0700080000000081400008C9400008AC
:100040000D0800080D0800080D0800080D0800083C
:100050000D0800080D0800080D0800080D0800082C
:100060000D0800080D0800080D0800080D0800081C
:100070000D0800080D0800080D0800080D0800080C
:100080000D0800080D0800080D0800080D080008FC
:100090000D0800080D0800080D0800080D080008EC
:1000A0000D0800080D0800080D0800080D080008DC
:1000B0000D080008390700080D0800080D080008A1
:1000C0000D0800080D0800080D0800080D080008BC
:1000D0000D0800080D0800080D0800080D080008AC
:1000E0000D0800080D0800080D0800080D0800089C
:1000F0000D0800080D0800080D0800080D0800088C
:100100000D0800080D0800080D0800080D0800087B
:100110000D0800080D0800080D0800080D0800086B
:100120000D0800080D0800080D0800080D0800085B
:1001300000000000000000000000000000000000BF
:1001400000000000000000000000000000000000AF
:10015000000000000000000000000000000000009F
:10016000000000000000000000000000000000008F
:10017000000000000000000000000000000000007F
:10018000000000000000000000000000000000006F
:10019000000000000000000000000000000000005F
:1001A000000000000000000000000000000000004F
:1001B000000000000000000000000000000000003F
:1001C000000000000000000000000000000000002F
:1001D000000000000000000000000000000000001F
:0401E0005FF8E0F1F3
:1001F00010B5054C237833B9044B13B10448AFF361
:1002000000800123237010BD740000200000000056
:10021000284F000808B5034B1BB103490348AFF34F
:10022000008008BD0000000078000020284F000872
:10023000034613F8012B002AFBD1181A0138704726
:1002400080B485B000AFF860B9607A60FB68064A98
:100250001A60BB68054A1A607B6880221A6000BF7A
:100260001437BD4680BC7047900000204401002038
:10027000B0B596B000AF00F0CBFA00F059F800F03E
:10028000C7F800F09BF8234B07F148040FCB84E834
:100290000F0007F148030021184601F05FFF0346F5
:1002A0001D4A13600423BB630223FB6307F144036D
:1002B0003B6407F138030021184601F077FF03463D
:1002C000164A1360164B07F11C041D460FCD0FC4D0
:1002D00095E8070084E8070007F11C030021184691
:1002E00001F0DDFD03460F4A13600F4B3C461D46EF
:1002F0000FCD0FC495E8070084E807003B460021B6
:10030000184601F0CCFD0346084A136001F0C0FD19
:10031000FEE700BF584F0008EC100020E810002056
:10032000684F0008A0100020844F00089C10002097
:1003300080B590B000AF07F11803282200211846BD
:1003400004F056F93B1D00221A605A609A60DA6088
:100350001A610123BB614FF48033FB6100233B62D0
:100360000123BB6202237B634FF48033BB634FF4F2
:10037000E013FB6307F11803184600F0EFFC034697
:10038000002B01D000F0E0F80F237B600223BB605C
:100390000023FB604FF480633B6100237B613B1DC6
:1003A0000221184600F05AFF0346002B01D000F04E
:1003B000CBF800BF4037BD4680BD000080B500AF20
:1003C000114B124A1A60104B4FF4E1325A600E4B37
:1003D00000229A600C4B0022DA600B4B00221A615B
:1003E000094B0C225A61084B00229A61064B0022ED
:1003F000DA61054801F06CFB0346002B01D000F0E8
:10040000A3F800BF80BD00BFA41000200038014049
:1004100080B483B000AF0E4B9B690D4A43F02003BC
:1004200093610B4B9B6903F020037B607B68084B57
:100430009B69074A43F004039361054B9B6903F0F2
:1004400004033B603B6800BF0C37BD4680BC70476F
:100450000010024080B584B000AF78604FF47A702D
:1004600001F069FD134B1B684FF0FF31184601F096
:10047000F5FEF860FB6801221A800E4B1B68F968D4
:10048000184601F001FF4FF4FA6001F054FD094BEA
:100490001B684FF0FF31184601F0E0FEF860FB6882
:1004A00002221A80034B1B68F968184601F0ECFE23
:1004B000D4E700BFE810002080B58CB000AF7860B2
:1004C000154B196807F120034FF0FF32184601F071
:1004D00019FF3B6A202BF3D17B6AFB62FB6A1B8806
:1004E0001A4607F10C030D49184604F05DF907F1AF
:1004F0000C031846FFF79CFE03469AB207F10C0165
:100500004FF0FF33064801F030FB034B1B68F96ADC
:10051000184601F06BFFD3E7E8100020A04F000859
:10052000A410002080B582B000AF78607B681B68A3
:10053000044A934201D100F081F900BF0837BD465B
:1005400080BD00BF0004004080B400AF72B600BFA1
:10055000FEE7000080B584B000AF184B9B69174AD6
:1005600043F001039361154B9B6903F00103BB60EA
:10057000BB68124BDB69114A43F08053D3610F4BC8
:10058000DB6903F080537B607B6800220F216FF0F2
:10059000010000F024FA0A4B5B68FB60FB6823F063
:1005A000E063FB60FB6843F00073FB60044AFB6898
:1005B000536000BF1037BD4680BD00BF0010024031
:1005C0000000014080B588B000AF786007F11003EB
:1005D00000221A605A609A60DA607B681B681C4AC5
:1005E000934231D11B4B9B691A4A43F48043936178
:1005F000184B9B6903F48043FB60FB68154B9B69B8
:10060000144A43F004039361124B9B6903F0040303
:10061000BB60BB684FF400733B6102237B61032323
:10062000FB6107F1100319460B4800F003FA4FF481
:1006300080633B6100237B610023BB6107F11003F2
:100640001946054800F0F6F900BF2037BD4680BDC9
:1006500000380140001002400008014080B58CB015
:1006600000AF78600023FB620023BB620022796840
:100670001D2000F0B4F91D2000F0CDF91F4BDB69FF
:100680001E4A43F00203D3611C4BDB6903F00203F3
:10069000FB60FB6807F1100207F1140311461846CE
:1006A00000F058FF00F02EFF03465B00FB62FB6A80
:1006B000134AA2FB03239B0C013BBB62114B124A62
:1006C0001A60104B40F2E732DA600E4ABB6A5360A0
:1006D0000C4B00221A610B4B00229A60094800F073
:1006E00087FF0346002B04D1064800F0D9FF0346DC
:1006F00000E0012318463037BD4680BD001002409F
:1007000083DE1B43F01000200004004080B400AFE3
:10071000FEE780B400AFFEE780B400AFFEE780B430
:1007200000AFFEE780B400AFFEE780B400AF00BFCB
:10073000BD4680BC7047000080B500AF024801F0A4
:100740000FF800BF80BD00BFF010002080B586B05C
:1007500000AF7860144A154BD31A7B617B693B610B
:10076000134B1B68002B02D1114B124A1A60104B1D
:100770001A687B6813443A699A4207D203F0FEFE76
:1007800003460C221A604FF0FF3309E0084B1B6848
:10079000FB60074B1A687B681344054A1360FB68CB
:1007A00018461837BD4680BD00C000200004000078
:1007B000440300205011002080B400AF00BFBD46AC
:1007C00080BC70470C480D490D4A002302E0D45804
:1007D000C4500433C4188C42F9D30A4A0A4C00238B
:1007E00001E013600432A242FBD3FFF7E5FF03F000
:1007F000CBFEFFF73DFD7047000000207400002095
:1008000080500008740000204C110020FEE700001A
:1008100080B500AF084B1B68074A43F01003136014
:10082000032000F0D1F80F20FFF718FFFFF792FE2A
:100830000023184680BD00BF0020024080B400AFF6
:10084000054B1B781A46054B1B681344034A13607B
:1008500000BFBD4680BC7047080000203811002052
:1008600080B400AF024B1B681846BD4680BC704781
:100870003811002080B485B000AF78607B6803F049
:100880000703FB600C4BDB68BB60BA684FF6FF03E5
:100890001340BB60FB681A02BB68134343F0BF639D
:1008A00043F40033BB60044ABB68D36000BF143715
:1008B000BD4680BC704700BF00ED00E080B400AFD3
:1008C000044BDB681B0A03F007031846BD4680BCD7
:1008D000704700BF00ED00E080B483B000AF034676
:1008E000FB7197F90730002B0BDBFB7903F01F023C
:1008F000064997F907305B09012000FA02F241F836
:10090000232000BF0C37BD4680BC704700E100E0EB
:1009100080B483B000AF03463960FB7197F90730AC
:10092000002B0ADB3B68DAB20C4997F90730120159
:10093000D2B20B4483F800230AE03B68DAB20849DC
:10094000FB7903F00F03043B1201D2B20B441A7679
:1009500000BF0C37BD4680BC704700BF00E100E01F
:1009600000ED00E080B489B000AFF860B9607A6053
:10097000FB6803F00703FB61FB69C3F10703042B6A
:1009800028BF0423BB61FB690433062B02D9FB6932
:10099000033B00E000237B614FF0FF32BB6902FAAA
:1009A00003F3DA43BB681A407B699A404FF0FF318A
:1009B0007B6901FA03F3D9437B680B401343184664
:1009C0002437BD4680BC704780B582B000AF7860E8
:1009D0007868FFF74FFF00BF0837BD4680BD80B580
:1009E00086B000AF0346B9607A60FB7300237B6179
:1009F000FFF764FF78617A68B9687869FFF7B2FF3A
:100A0000024697F90F3011461846FFF781FF00BFE5
:100A10001837BD4680BD80B582B000AF0346FB717C
:100A200097F907301846FFF757FF00BF0837BD4654
:100A300080BD000080B48BB000AF786039600023C7
:100A40007B6200233B6279E101227B6A02FA03F3B5
:100A5000FB613B681B68FA691340BB61BA69FB69BB
:100A60009A4240F068813B685B68A04A93425ED03E
:100A70009E4A934275D89E4A934258D09C4A9342CC
:100A80006FD89C4A934252D09A4A934269D89A4A64
:100A900093424CD0984A934263D8984A934246D0A6
:100AA000964A93425DD8122B2AD8122B59D801A20C
:100AB00052F823F02F0B0008090B00081B0B00084D
:100AC0005D0B0008630B0008630B0008630B000854
:100AD000630B0008630B0008630B0008630B00083E
:100AE000630B0008630B0008630B0008630B00082E
:100AF000630B0008630B0008110B0008250B0008AE
:100B00007F4A934213D02CE03B68DB683B6229E0CC
:100B10003B68DB6804333B6224E03B68DB680833F6
:100B20003B621FE03B68DB680C333B621AE03B68CA
:100B30009B68002B02D104233B6213E03B689B6857
:100B4000012B05D108233B627B68FA691A6109E031
:100B500008233B627B68FA695A6103E000233B6229
:100B600000E000BFBB69FF2B01D87B6801E07B6818
:100B700004337B61BB69FF2B02D87B6A9B0002E0D8
:100B80007B6A083B9B003B617B691A680F213B69CC
:100B900001FA03F3DB431A40396A3B6901FA03F3B4
:100BA0001A437B691A603B685B6803F08053002B33
:100BB00000F0C180534B9B69524A43F0010393619B
:100BC000504B9B6903F00103BB60BB684E4A7B6AD4
:100BD0009B08023352F82330FB607B6A03F0030367
:100BE0009B000F2202FA03F3DB43FA681340FB6019
:100BF0007B68464A93421FD07B68454A934219D08E
:100C00007B68444A934213D07B68434A93420DD099
:100C10007B68424A934207D07B68414A934201D1A4
:100C200005230AE0062308E0042306E0032304E08A
:100C3000022302E0012300E000237A6A02F00302AB
:100C400092009340FA681343FB602F497B6A9B082C
:100C50000233FA6841F823203B685B6803F4803371
:100C6000002B06D02F4B1A682E49BB6913430B602B
:100C700006E02C4B1A68BB69DB432A4913400B6022
:100C80003B685B6803F40033002B06D0254B5A68A1
:100C90002449BB6913434B6006E0224B5A68BB6989
:100CA000DB43204913404B603B685B6803F48013CF
:100CB000002B06D01B4B9A681A49BB6913438B6003
:100CC00006E0184B9A68BB69DB43164913408B60FA
:100CD0003B685B6803F40013002B25D0114BDA68E6
:100CE0001049BB691343CB6025E000BF0000321000
:100CF000000031100000221000002110000012102E
:100D000000001110001002400000014000080140E6
:100D1000000C014000100140001401400018014087
:100D2000001C0140000401400B4BDA68BB69DB4347
:100D300009491340CB607B6A01337B623B681A68C8
:100D40007B6A22FA03F3002B7FF47EAE00BF00BF64
:100D50002C37BD4680BC70470004014080B586B08A
:100D600000AF78607B68002B01D101236CE27B68C7
:100D70001B6803F00103002B00F08780924B5B6837
:100D800003F00C03042B0CD08F4B5B6803F00C03B7
:100D9000082B12D18C4B5B6803F48033B3F5803F92
:100DA0000BD1894B1B6803F40033002B6CD07B689C
:100DB0005B68002B68D1012346E27B685B68B3F572
:100DC000803F06D1804B1B687F4A43F48033136019
:100DD0002EE07B685B68002B0CD17B4B1B687A4A4A
:100DE00023F480331360784B1B68774A23F4802305
:100DF00013601DE07B685B68B3F5A02F0CD1724BCC
:100E00001B68714A43F4802313606F4B1B686E4A62
:100E100043F4803313600BE06B4B1B686A4A23F486
:100E200080331360684B1B68674A23F48023136088
:100E30007B685B68002B13D0FFF712FD386108E078
:100E4000FFF70EFD02463B69D31A642B01D9032339
:100E5000FAE15D4B1B6803F40033002BF0D014E083
:100E6000FFF7FEFC386108E0FFF7FAFC02463B6939
:100E7000D31A642B01D90323E6E1534B1B6803F417
:100E80000033002BF0D100E000BF7B681B6803F04B
:100E90000203002B63D04C4B5B6803F00C03002B68
:100EA0000BD0494B5B6803F00C03082B1CD1464B5D
:100EB0005B6803F48033002B16D1434B1B6803F0AF
:100EC0000203002B05D07B681B69012B01D0012395
:100ED000BAE13D4B1B6823F0F8027B685B69DB00DD
:100EE000394913430B603AE07B681B69002B20D023
:100EF000364B01221A60FFF7B3FC386108E0FFF7B8
:100F0000AFFC02463B69D31A022B01D903239BE1B4
:100F10002D4B1B6803F00203002BF0D02A4B1B68FB
:100F200023F0F8027B685B69DB00274913430B6001
:100F300015E0264B00221A60FFF792FC386108E0AA
:100F4000FFF78EFC02463B69D31A022B01D903231B
:100F50007AE11D4B1B6803F00203002BF0D17B6884
:100F60001B6803F00803002B3AD07B689B69002BB9
:100F700019D0174B01221A60FFF772FC386108E0A4
:100F8000FFF76EFC02463B69D31A022B01D90323FB
:100F90005AE10D4B5B6A03F00203002BF0D00120F5
:100FA00000F008FB1CE00A4B00221A60FFF758FC17
:100FB00038610FE0FFF754FC02463B69D31A022B5D
:100FC00008D9032340E100BF001002400000424264
:100FD000800442429E4B5B6A03F00203002BE9D17E
:100FE0007B681B6803F00403002B00F0A68000233D
:100FF000FB75974BDB6903F08053002B0DD1944BAD
:10100000DB69934A43F08053D361914BDB6903F072
:101010008053BB60BB680123FB758E4B1B6803F4D8
:101020008073002B18D18B4B1B688A4A43F4807362
:101030001360FFF715FC386108E0FFF711FC02466A
:101040003B69D31A642B01D90323FDE0814B1B6854
:1010500003F48073002BF0D07B68DB68012B06D192
:101060007B4B1B6A7A4A43F0010313622DE07B68D5
:10107000DB68002B0CD1764B1B6A754A23F0010309
:101080001362734B1B6A724A23F0040313621CE061
:101090007B68DB68052B0CD16D4B1B6A6C4A43F0F7
:1010A000040313626A4B1B6A694A43F0010313622B
:1010B0000BE0674B1B6A664A23F001031362644B23
:1010C0001B6A634A23F0040313627B68DB68002B0E
:1010D00015D0FFF7C5FB38610AE0FFF7C1FB0246F8
:1010E0003B69D31A41F28832934201D90323ABE022
:1010F000574B1B6A03F00203002BEED014E0FFF7FE
:10110000AFFB38610AE0FFF7ABFB02463B69D31A3D
:1011100041F28832934201D9032395E04C4B1B6A7C
:1011200003F00203002BEED1FB7D012B05D1484BD0
:10113000DB69474A23F08053D3617B68DB69002B6E
:1011400000F08180424B5B6803F00C03082B61D0F8
:101150007B68DB69022B46D13F4B00221A60FFF708
:101160007FFB386108E0FFF77BFB02463B69D31A3F
:10117000022B01D9032367E0354B1B6803F0007392
:10118000002BF0D17B681B6AB3F5803F08D1304B50
:101190005B6823F400327B689B682D4913434B60E6
:1011A0002B4B5B6823F474127B68196A7B685B6A5B
:1011B0000B43274913434B60274B01221A60FFF76B
:1011C0004FFB386108E0FFF74BFB02463B69D31A3F
:1011D000022B01D9032337E01D4B1B6803F000737A
:1011E000002BF0D02FE01C4B00221A60FFF738FBD9
:1011F000386108E0FFF734FB02463B69D31A022B43
:1012000001D9032320E0124B1B6803F00073002B6D
:10121000F0D118E07B68DB69012B01D1012313E0D9
:101220000B4B5B68FB60FB6803F480327B681B6AD6
:101230009A4206D1FB6803F470127B685B6A9A429B
:1012400001D0012300E0002318461837BD4680BDB9
:1012500000100240007000406000424280B584B03F
:1012600000AF786039607B68002B01D10123D0E0AA
:101270006A4B1B6803F007033A689A4210D9674B20
:101280001B6823F0070265493B6813430B60634BFF
:101290001B6803F007033A689A4201D00123B8E0C3
:1012A0007B681B6803F00203002B20D07B681B685F
:1012B00003F00403002B05D0594B5B68584A43F4F4
:1012C000E06353607B681B6803F00803002B05D0C4
:1012D000534B5B68524A43F460535360504B5B6816
:1012E00023F0F0027B689B684D4913434B607B6899
:1012F0001B6803F00103002B40D07B685B68012B67
:1013000007D1474B1B6803F40033002B15D1012391
:101310007FE07B685B68022B07D1414B1B6803F0C1
:101320000073002B09D1012373E03D4B1B6803F0D0
:101330000203002B01D101236BE0394B5B6823F0E2
:1013400003027B685B68364913434B60FFF788FAFA
:10135000F8600AE0FFF784FA0246FB68D31A41F20C
:101360008832934201D9032353E02D4B5B6803F08D
:101370000C027B685B689B009A42EBD1274B1B6891
:1013800003F007033A689A4210D2244B1B6823F0FB
:10139000070222493B6813430B60204B1B6803F094
:1013A00007033A689A4201D0012332E07B681B6848
:1013B00003F00403002B08D0194B5B6823F4E062B0
:1013C0007B68DB68164913434B607B681B6803F03E
:1013D0000803002B09D0124B5B6823F460527B6832
:1013E0001B69DB000E4913434B6000F021F80246F5
:1013F0000B4B5B681B0903F00F030A49CB5C22FA15
:1014000003F3094A1360094B1B681846FFF726F9D6
:10141000002318461037BD4680BD00BF00200240A3
:1014200000100240CC4F0008000000200400002003
:1014300090B48AB000AF2A4B3C1D0FCB84E80F005C
:1014400040F201233B800023FB610023BB610023AA
:101450007B6200237B6100233B62224B5B68FB6164
:10146000FB6903F00C03042B02D0082B03D02DE002
:101470001D4B3B622DE0FB699B0C03F00F0307F152
:101480002802134413F8243C7B61FB6903F4803386
:10149000002B13D0134B5B685B0C03F0010307F1C7
:1014A0002802134413F8283CBB617B690E4A02FBF7
:1014B00003F2BB69B2FBF3F37B6204E07B690B4A86
:1014C00002FB03F37B627B6A3B6202E0064B3B62FA
:1014D00000BF3B6A18462837BD4690BC704700BF26
:1014E000B44F00080010024000127A0000093D00CD
:1014F00080B400AF024B1B681846BD4680BC7047E5
:101500000000002080B500AFFFF7F2FF0246054B58
:101510005B681B0A03F007030349CB5C22FA03F361
:10152000184680BD00100240DC4F000880B500AFB7
:10153000FFF7DEFF0246054B5B68DB0A03F007039B
:101540000349CB5C22FA03F3184680BD0010024029
:10155000DC4F000880B483B000AF786039607B68EE
:101560000F221A60114B5B6803F003027B685A601C
:101570000E4B5B6803F0F0027B689A600B4B5B6874
:1015800003F4E0627B68DA60084B5B68DB0803F415
:10159000E0627B681A61064B1B6803F007023B6838
:1015A0001A6000BF0C37BD4680BC70470010024077
:1015B0000020024080B485B000AF78600A4B1B6801
:1015C0000A4AA2FB03235B0A7A6802FB03F3FB606F
:1015D00000BFFB685A1EFA60002BF9D100BF00BFA4
:1015E0001437BD4680BC704700000020D34D621008
:1015F00080B582B000AF78607B68002B01D10123F9
:1016000041E07B6893F83D30DBB2002B06D17B686C
:10161000002283F83C20786800F039F87B680222C9
:1016200083F83D207B681A687B68043319461046AE
:1016300000F0C2F97B68012283F846207B68012212
:1016400083F83E207B68012283F83F207B680122DB
:1016500083F840207B68012283F841207B680122C7
:1016600083F842207B68012283F843207B680122B3
:1016700083F844207B68012283F845207B6801229F
:1016800083F83D20002318460837BD4680BD80B44E
:1016900083B000AF786000BF0C37BD4680BC704798
:1016A00080B485B000AF78607B6893F83D30DBB2E2
:1016B000012B01D0012344E07B68022283F83D2006
:1016C0007B681B68DA687B681B6842F00102DA609D
:1016D0007B681B681D4A934218D07B681B681C4AB4
:1016E000934213D07B681B68B3F1804F0ED07B68A8
:1016F0001B68184A934209D07B681B68164A9342BC
:1017000004D07B681B68154A934211D17B681B6823
:101710009B6803F00703FB60FB68062B10D07B6817
:101720001B681A687B681B6842F001021A6007E0B8
:101730007B681B681A687B681B6842F001021A60AC
:10174000002318461437BD4680BC7047002C01406A
:10175000003401400004004000080040000C00403C
:1017600080B582B000AF78607B681B681B6903F0AE
:101770000203022B22D17B681B68DB6803F00203A3
:10178000022B1BD17B681B686FF002021A617B6819
:1017900001221A777B681B689B6903F00303002B07
:1017A00003D0786800F0EDF805E0786800F0E0F824
:1017B000786800F0EFF87B6800221A777B681B6876
:1017C0001B6903F00403042B22D17B681B68DB68D0
:1017D00003F00403042B1BD17B681B686FF0040229
:1017E0001A617B6802221A777B681B689B6903F485
:1017F0004073002B03D0786800F0C3F805E07868E8
:1018000000F0B6F8786800F0C5F87B6800221A7717
:101810007B681B681B6903F00803082B22D17B68D7
:101820001B68DB6803F00803082B1BD17B681B686F
:101830006FF008021A617B6804221A777B681B68C4
:10184000DB6903F00303002B03D0786800F099F8FC
:1018500005E0786800F08CF8786800F09BF87B6809
:1018600000221A777B681B681B6903F01003102B9A
:1018700022D17B681B68DB6803F01003102B1BD19F
:101880007B681B686FF010021A617B6808221A7768
:101890007B681B68DB6903F44073002B03D0786816
:1018A00000F06FF805E0786800F062F8786800F002
:1018B00071F87B6800221A777B681B681B6903F04C
:1018C0000103012B0ED17B681B68DB6803F0010369
:1018D000012B07D17B681B686FF001021A617868E1
:1018E000FEF720FE7B681B681B6903F08003802BDA
:1018F0000ED17B681B68DB6803F08003802B07D167
:101900007B681B686FF080021A61786800F0D7F876
:101910007B681B681B6903F04003402B0ED17B687A
:101920001B68DB6803F04003402B07D17B681B6812
:101930006FF040021A61786800F035F87B681B6828
:101940001B6903F02003202B0ED17B681B68DB682A
:1019500003F02003202B07D17B681B686FF0200267
:101960001A61786800F0A2F800BF0837BD4680BD54
:1019700080B483B000AF786000BF0C37BD4680BC38
:10198000704780B483B000AF786000BF0C37BD46AD
:1019900080BC704780B483B000AF786000BF0C3764
:1019A000BD4680BC704780B483B000AF786000BF94
:1019B0000C37BD4680BC704780B485B000AF7860FE
:1019C00039607B681B68FB607B68334A934213D0A5
:1019D0007B68324A93420FD07B68B3F1804F0BD0C3
:1019E0007B682F4A934207D07B682E4A934203D0EC
:1019F0007B682D4A934208D1FB6823F07003FB609B
:101A00003B685B68FA681343FB607B68224A934239
:101A100013D07B68214A93420FD07B68B3F1804F8B
:101A20000BD07B681E4A934207D07B681D4A9342C5
:101A300003D07B681C4A934208D1FB6823F44073AF
:101A4000FB603B68DB68FA681343FB60FB6823F0CC
:101A500080023B685B691343FB607B68FA681A602D
:101A60003B689A687B68DA623B681A687B689A62AE
:101A70007B68094A934203D07B68084A934203D1AA
:101A80003B681A697B681A637B6801225A6100BF50
:101A90001437BD4680BC7047002C01400034014023
:101AA0000004004000080040000C004080B483B0F7
:101AB00000AF786000BF0C37BD4680BC704780B473
:101AC00083B000AF786000BF0C37BD4680BC704764
:101AD00080B582B000AF78607B68002B01D1012314
:101AE0003FE07B6893F83D30DBB2002B06D17B688A
:101AF000002283F83C207868FEF764FD7B6824228E
:101B000083F83D207B681B68DA687B681B6822F4D9
:101B10000052DA60786800F005F97B681B681A6982
:101B20007B681B6822F490421A617B681B685A69C3
:101B30007B681B6822F02A025A617B681B68DA689E
:101B40007B681B6842F40052DA607B6800221A64EA
:101B50007B68202283F83D207B68202283F83E208A
:101B6000002318460837BD4680BD80B58AB002AF55
:101B7000F860B9603B601346FB8000237B61FB6823
:101B800093F83D30DBB2202B7CD1BB68002B02D018
:101B9000FB88002B01D1012375E0FB6893F83C30F2
:101BA000012B01D102236EE0FB68012283F83C2067
:101BB000FB6800221A64FB68212283F83D20FEF7AF
:101BC0004FFE7861FB68FA889A84FB68FA88DA84A9
:101BD000FB689B68B3F5805F08D1FB681B69002B2D
:101BE00004D10023FB61BB68BB6103E0BB68FB6100
:101BF0000023BB61FB68002283F83C202AE03B689D
:101C000000937B6900228021F86800F040F80346C9
:101C1000002B01D0032336E0FB69002B0BD1BB69FD
:101C20001B881A46FB681B68C2F308025A60BB692E
:101C30000233BB6107E0FB691A78FB681B685A60D6
:101C4000FB690133FB61FB68DB8C9BB2013B9AB201
:101C5000FB68DA84FB68DB8C9BB2002BCFD13B683E
:101C600000937B6900224021F86800F010F80346D9
:101C7000002B01D0032306E0FB68202283F83D20DF
:101C8000002300E0022318462037BD4680BD80B502
:101C900084B000AFF860B9603B601346FB712CE084
:101CA000BB69B3F1FF3F28D0BB69002B07D0FEF71B
:101CB000D7FD02463B68D31ABA699A421DD2FB6827
:101CC0001B68DA68FB681B6822F4D072DA60FB6874
:101CD0001B685A69FB681B6822F001025A61FB68A5
:101CE000202283F83D20FB68202283F83E20FB68F9
:101CF000002283F83C2003230FE0FB681B681A686E
:101D0000BB681340BA689A420CBF01230023DBB2C0
:101D10001A46FB799A42C3D0002318461037BD46B5
:101D200080BD000080B584B000AF78607B681B6820
:101D30001B6923F440517B68DA687B681B680A439F
:101D40001A617B689A687B681B691A437B685B69C8
:101D50001343BB607B681B68DB6823F4B05323F03C
:101D60000C037A681268B9680B43D3607B681B6800
:101D70005B6923F440717B689A697B681B680A433E
:101D80005A617B681B682C4A934203D1FFF7CEFB54
:101D9000F86002E0FFF7B6FBF860FA6813469B00B4
:101DA00013449A001A447B685B689B00B2FBF3F310
:101DB000224AA2FB03235B091901FA6813469B0020
:101DC00013449A001A447B685B689B00B2FBF3F2F1
:101DD0001A4BA3FB02035B09642000FB03F3D31A35
:101DE0001B013233154AA2FB03235B0903F0F00306
:101DF0001944FA6813469B0013449A001A447B68FE
:101E00005B689B00B2FBF3F20C4BA3FB02035B0984
:101E1000642000FB03F3D31A1B013233074AA2FBF1
:101E200003235B0903F00F027B681B680A449A6076
:101E300000BF1037BD4680BD003801401F85EB5103
:101E400080B485B000AF0346FB800023FB60B7F988
:101E50000630842B05D0B7F90620FB681344033302
:101E6000FB60FB6818461437BD4680BC704780B4E1
:101E700083B000AFEFF305837B607B68002B14BF5A
:101E800001230023DBB218460C37BD4680BC7047E7
:101E900080B500AF01F086FA0023184680BDF0B58A
:101EA00089B004AF786039607B685B69002B20D013
:101EB0007B689B69002B1CD07B685C687B681D6815
:101EC0007B681E697B68B3F908301846FFF7B8FFD6
:101ED00001467B685B697A6892690292019300917E
:101EE0003B6832462946204601F086F80346FB60EF
:101EF0001CE07B685C687B681D687B681B699EB220
:101F00007B68B3F908301846FFF79AFF024607F1DD
:101F10000C03019300923B6832462946204601F0AB
:101F2000C7F80346012B01D0002300E0FB681846E8
:101F30001437BD46F0BD80B584B000AF78607B68D3
:101F4000FB60FB68002B01D0FB6800E00123184612
:101F500001F0F4F9002318461037BD4680BD80B566
:101F600086B000AF78607B685B68033323F00303BF
:101F7000FB60142002F02AF978617B69002B46D0BF
:101F80007B681A687B699A60FA687B69DA607B69AA
:101F900000221A617B681B68184602F017F9024696
:101FA0007B695A607B695B68002B2BD07B681B6860
:101FB000FA6802FB03F3184602F008F902467B694F
:101FC0001A607B691B68002B11D000233B6108E07D
:101FD0007B695A683B69134400221A703B690133DC
:101FE0003B617B681B683A699A42F1D30FE07B69D9
:101FF0005B68184602F0AEF9786902F0ABF900238D
:102000007B6104E0786902F0A5F900237B617B69BC
:1020100018461837BD4680BD80B58AB000AF7860DD
:1020200000237B6200233B62FFF721FF0346002B66
:102030000ED0EFF311824FF0500383F31188BFF3FA
:102040006F8FBFF34F8F7A613B617B697B6201E0E9
:1020500001F0BCFF0023FB6129E07B681A69FB6982
:1020600013447A689268B3FBF2F102FB01F29B1A07
:10207000BB617B685A68BB6913441B78002B13D182
:102080007B685A68BB69134401221A707B681B681D
:1020900019467B68DB68BA6902FB03F30B443B62B9
:1020A0007B68BA691A6107E0FB690133FB617B68F1
:1020B0009B68FA699A42D0D3FFF7D9FE0346002BFA
:1020C00005D07B6AFB60FB6883F3118801E001F0B7
:1020D000ADFF3B6A18462837BD4680BD80B485B049
:1020E00000AF786039607B68002B01D1802330E03D
:1020F0003B68002B01D180232BE07B681B683A688A
:102100009A4201D2802324E03B687A6812689B1AC5
:10211000FB607B68DA68FB68B3FBF2F102FB01F25B
:102120009B1A002B01D0802313E07B68DB68FA68E0
:10213000B2FBF3F3FB607B689B68FA689A4201D3B9
:10214000802306E07B685A68FB68134400221A70FB
:10215000002318461437BD4680BC704790B585B043
:1021600002AF786039607B689B68002B11D07B6878
:10217000DB68002B0DD07B6818687B6859687B682A
:102180009A687B68DB680024009400F05BFA0346E1
:1021900008E07B6818687B685B680022194600F0DD
:1021A000C8FA034618460C37BD4690BD90B587B0B7
:1021B00000AF786039607B681B68FB607B685B6898
:1021C0003B6100237B617B689C680C2001F0FEFF73
:1021D000034623607B689B681B68002B01D10023AA
:1021E00038E07B689B681B687A681A607B681868AF
:1021F0007B689B681C680022042100F09AFA034661
:1022000063607B689B681B685B68002B07D17B68F9
:102210009B681B68184602F09DF800231AE07B6853
:102220009B681C6807F10C031846FFF798FE0346ED
:10223000A3607B689B681B689B68002B07D17B6849
:102240009B681B68184602F085F8002302E07B6853
:102250009B681B6818461C37BD4690BD80B584B08E
:1022600000AF786039607B68002B01D1002306E065
:102270007B689B681846FFF7CFFEF860FB6818463E
:102280001037BD4680BD000080B584B000AF7860D7
:1022900039607B68002B01D180232CE00023FB6098
:1022A000FFF7E5FD0346002B18D07B68586807F15F
:1022B0000C023946002300F097FB0346012B01D0A6
:1022C000FF2318E0FB68002B14D00D4B4FF0805219
:1022D0001A60BFF34F8FBFF36F8F0BE07B685868B6
:1022E00039460023002200F081FA0346012B01D079
:1022F000FF2300E0002318461037BD4680BD00BF15
:1023000004ED00E090B58BB000AFF860B9607A6082
:10231000BB68FB61BB68002B0AD180237B61FB6833
:102320001C4607F1140393E8070084E8070056E011
:1023300000233B6200237B627B68B3F1FF3F03D144
:102340004FF0FF337B6209E07B68002B06D07B688F
:102350007B627B6A002B01D101237B62FFF787FD43
:102360000346002B1DD0BB68586807F1200207F117
:1023700014030433194600F0AFFC0346012B02D1CD
:1023800020237B6101E000237B613B6A002B1ED090
:10239000154B4FF080521A60BFF34F8FBFF36F8F12
:1023A00015E0BB68586807F1140304337A6A1946CC
:1023B00000F0B2FB0346012B02D120237B6106E033
:1023C0007B6A002B01D1002300E040237B61FB6886
:1023D0001C4607F1140393E8070084E80700F86837
:1023E0002C37BD4690BD00BF04ED00E080B582B043
:1023F00000AF786039607B68002B01D1802306E054
:102400007B689B6839681846FFF768FE03461846E4
:102410000837BD4680BD80B483B000AF78607B686C
:1024200003F108027B685A607B684FF0FF329A60C4
:102430007B6803F108027B68DA607B6803F10802BD
:102440007B681A617B6800221A6000BF0C37BD46AA
:1024500080BC704780B483B000AF78607B68002296
:102460001A6100BF0C37BD4680BC704780B485B090
:1024700000AF786039607B685B68FB603B68FA6836
:102480005A60FB689A683B689A60FB689B683A6888
:102490005A60FB683A689A603B687A681A617B68A0
:1024A0001B685A1C7B681A6000BF1437BD4680BC8D
:1024B000704780B485B000AF786039603B681B68B6
:1024C000BB60BB68B3F1FF3F03D17B681B69FB6056
:1024D0000CE07B680833FB6002E0FB685B68FB6034
:1024E000FB685B681B68BA689A42F6D2FB685A6858
:1024F0003B685A603B685B683A689A603B68FA6878
:102500009A60FB683A685A603B687A681A617B682F
:102510001B685A1C7B681A6000BF1437BD4680BC1C
:10252000704780B485B000AF78607B681B69FB6042
:102530007B685B687A6892689A607B689B687A6857
:1025400052685A60FB685B687A689A4203D17B687C
:102550009A68FB685A607B6800221A61FB681B68F6
:102560005A1EFB681A60FB681B6818461437BD4684
:1025700080BC704780B584B000AF786039607B68FC
:10258000FB60FB68002B0AD14FF0500383F31188E6
:10259000BFF36F8FBFF34F8FBB6000BFFEE701F04B
:1025A00015FDFB681A68FB68DB6BF968096C01FBB9
:1025B00003F31A44FB685A60FB6800229A63FB68C5
:1025C0001A68FB689A60FB681A68FB68DB6B013B62
:1025D000F968096C01FB03F31A44FB68DA60FB68D5
:1025E000FF2283F84420FB68FF2283F845203B68E4
:1025F000002B14D1FB681B69002B1AD0FB68103329
:10260000184601F027F90346002B12D00C4B4FF06F
:1026100080521A60BFF34F8FBFF36F8F09E0FB68E2
:1026200010331846FFF7F7FEFB6824331846FFF710
:10263000F2FE01F0FBFC012318461037BD4680BDB9
:1026400004ED00E080B58EB002AFF860B9607A604A
:102650003B60FB68002B0AD14FF0500383F31188D5
:10266000BFF36F8FBFF34F8FBB6200BFFEE73B68C6
:10267000002B0AD14FF0500383F31188BFF36F8F03
:10268000BFF34F8F7B6200BFFEE77B68002B02D059
:10269000BB68002B01D0012300E00023002B0AD1EE
:1026A0004FF0500383F31188BFF36F8FBFF34F8F49
:1026B0003B6200BFFEE77B68002B02D1BB68002BAA
:1026C00001D1012300E00023002B0AD14FF0500379
:1026D00083F31188BFF36F8FBFF34F8FFB6100BF90
:1026E000FEE748237B617B69482B0AD04FF05003FB
:1026F00083F31188BFF36F8FBFF34F8FBB6100BFB0
:10270000FEE73B68FB62FB6A002B0DD0FB6A0122EF
:1027100083F8462097F83820FB6A009313467A68BE
:10272000B968F86800F043F8FB6A18463037BD46D0
:1027300080BD80B58AB002AFF860B9601346FB7106
:10274000FB68002B0AD14FF0500383F31188BFF3CD
:102750006F8FBFF34F8F3B6100BFFEE7BB68002B5D
:1027600002D10023FB6104E0FB68BA6802FB03F3BB
:10277000FB61FB694833184601F028FDB861BB696D
:10278000002B0FD0BB6948337B61BB69002283F803
:102790004620FA79BB69009313467A69B968F868EC
:1027A00000F005F8BB6918462037BD4680BD80B5EE
:1027B00084B000AFF860B9607A60FB70BB68002B32
:1027C00003D1BB69BA691A6002E0BB697A681A6012
:1027D000BB69FA68DA63BB69BA681A640121B8692F
:1027E000FFF7C8FE00BF1037BD4680BD80B58EB074
:1027F00000AFF860B9607A603B6000237B63FB68E0
:102800003B633B6B002B0AD14FF0500383F31188DD
:10281000BFF36F8FBFF34F8FBB6200BFFEE7BB6894
:10282000002B03D13B6B1B6C002B01D1012300E07B
:102830000023002B0AD14FF0500383F31188BFF31C
:102840006F8FBFF34F8F7B6200BFFEE73B68022BA9
:1028500003D13B6BDB6B012B01D1012300E0002393
:10286000002B0AD14FF0500383F31188BFF36F8F11
:10287000BFF34F8F3B6200BFFEE701F0AFF90346A5
:10288000002B02D17B68002B01D1012300E0002343
:10289000002B0AD14FF0500383F31188BFF36F8FE1
:1028A000BFF34F8FFB6100BFFEE701F08FFB3B6B77
:1028B0009A6B3B6BDB6B9A4202D33B68022B29D1AC
:1028C0003A68B968386B00F087FAF8623B6B5B6A6C
:1028D000002B10D03B6B2433184600F0BBFF03469F
:1028E000002B13D03F4B4FF080521A60BFF34F8F35
:1028F000BFF36F8F0AE0FB6A002B07D0394B4FF014
:1029000080521A60BFF34F8FBFF36F8F01F08EFBC1
:10291000012363E07B68002B03D101F087FB0023D8
:102920005CE07B6B002B06D107F11403184600F026
:10293000F3FF01237B6301F079FB00F09DFD01F0C3
:1029400045FB3B6B93F844305BB2B3F1FF3F03D1DF
:102950003B6B002283F844203B6B93F845305BB21D
:10296000B3F1FF3F03D13B6B002283F8452001F018
:102970005DFB3A1D07F114031146184600F0E2FF13
:102980000346002B24D1386B00F01EFB0346002BBE
:1029900018D03B6B10337A681146184600F036FFAA
:1029A000386B00F0A9FA00F075FD0346002B7FF4A8
:1029B0007CAF0C4B4FF080521A60BFF34F8FBFF3C8
:1029C0006F8F72E7386B00F097FA00F063FD6CE7E9
:1029D000386B00F091FA00F05DFD0023184638379F
:1029E000BD4680BD04ED00E080B58EB000AFF8605C
:1029F000B9607A603B60FB683B633B6B002B0AD19C
:102A00004FF0500383F31188BFF36F8FBFF34F8FE5
:102A10007B6200BFFEE7BB68002B03D13B6B1B6CE6
:102A2000002B01D1012300E00023002B0AD14FF03D
:102A3000500383F31188BFF36F8FBFF34F8F3B6257
:102A400000BFFEE73B68022B03D13B6BDB6B012B26
:102A500001D1012300E00023002B0AD14FF05003E5
:102A600083F31188BFF36F8FBFF34F8FFB6100BFFC
:102A7000FEE701F06DFBEFF311824FF0500383F39B
:102A80001188BFF36F8FBFF34F8FBA617B61BB6952
:102A9000FB623B6B9A6B3B6BDB6B9A4202D33B68EE
:102AA000022B2CD13B6B93F8453087F82B303A68DA
:102AB000B968386B00F090F997F92B30B3F1FF3F0C
:102AC00012D13B6B5B6A002B16D03B6B243318464C
:102AD00000F0C0FE0346002B0ED07B68002B0BD00D
:102AE0007B6801221A6007E097F82B300133DBB2D4
:102AF0005AB23B6B83F8452001237B6301E000233E
:102B00007B63FB6A3B613B6983F3118800BF7B6B8E
:102B100018463837BD4680BD80B58CB000AFF86030
:102B2000B9607A600023FB62FB68BB62BB6A002B62
:102B30000AD14FF0500383F31188BFF36F8FBFF3B7
:102B40004F8F3B6200BFFEE7BB68002B03D1BB6A1F
:102B50001B6C002B01D1012300E00023002B0AD1C4
:102B60004FF0500383F31188BFF36F8FBFF34F8F84
:102B7000FB6100BFFEE701F031F80346002B02D1F4
:102B80007B68002B01D1012300E00023002B0AD138
:102B90004FF0500383F31188BFF36F8FBFF34F8F54
:102BA000BB6100BFFEE701F011FABB6A9B6B7B6261
:102BB0007B6A002B1FD0B968B86A00F077F97B6A8E
:102BC0005A1EBB6A9A63BB6A1B69002B0FD0BB6A93
:102BD0001033184600F03EFE0346002B07D03D4B55
:102BE0004FF080521A60BFF34F8FBFF36F8F01F029
:102BF0001DFA012369E07B68002B03D101F016FA6E
:102C0000002362E0FB6A002B06D107F1100318468F
:102C100000F082FE0123FB6201F008FA00F02CFCB8
:102C200001F0D4F9BB6A93F844305BB2B3F1FF3FD3
:102C300003D1BB6A002283F84420BB6A93F8453075
:102C40005BB2B3F1FF3F03D1BB6A002283F845209A
:102C500001F0ECF93A1D07F110031146184600F097
:102C600071FE0346002B23D1B86A00F097F90346A2
:102C7000002B17D0BB6A24337A681146184600F03F
:102C8000C5FDB86A00F038F900F004FC0346002BDB
:102C900089D1104B4FF080521A60BFF34F8FBFF3B2
:102CA0006F8F80E7B86A00F027F900F0F3FB7AE74E
:102CB000B86A00F021F900F0EDFBB86A00F06EF997
:102CC0000346002B3FF46FAF002318463037BD4654
:102CD00080BD00BF04ED00E080B58EB000AFF860AD
:102CE000B9607A60FB683B633B6B002B0AD14FF005
:102CF000500383F31188BFF36F8FBFF34F8F3B6295
:102D000000BFFEE7BB68002B03D13B6B1B6C002BA5
:102D100001D1012300E00023002B0AD14FF0500322
:102D200083F31188BFF36F8FBFF34F8FFB6100BF39
:102D3000FEE701F00DFAEFF311824FF0500383F339
:102D40001188BFF36F8FBFF34F8FBA617B61BB698F
:102D5000FB623B6B9B6BBB62BB6A002B2FD03B6B58
:102D600093F8443087F82730B968386B00F09EF844
:102D7000BB6A5A1E3B6B9A6397F92730B3F1FF3F4A
:102D800012D13B6B1B69002B16D03B6B10331846DE
:102D900000F060FD0346002B0ED07B68002B0BD0AB
:102DA0007B6801221A6007E097F827300133DBB215
:102DB0005AB23B6B83F8442001237B6301E000237C
:102DC0007B63FB6A3B613B6983F3118800BF7B6BCC
:102DD00018463837BD4680BD80B586B000AFF86074
:102DE000B9607A6000237B61FB689B6B3B61FB6889
:102DF0001B6C002B0DD1FB681B68002B4DD1FB68B1
:102E00005B68184600F008FF7861FB6800225A6092
:102E100043E07B68002B19D1FB689868FB681B6C4A
:102E20001A46B96801F0D6FBFB689A68FB681B6C10
:102E30001A44FB689A60FB689A68FB685B689A4270
:102E40002BD3FB681A68FB689A6026E0FB68D86899
:102E5000FB681B6C1A46B96801F0BCFBFB68DA68BA
:102E6000FB681B6C5B421A44FB68DA60FB68DA683B
:102E7000FB681B689A4207D2FB685A68FB681B6CA8
:102E80005B421A44FB68DA607B68022B05D13B6920
:102E9000002B02D03B69013B3B613B695A1CFB683C
:102EA0009A637B6918461837BD4680BD80B582B0ED
:102EB00000AF786039607B681B6C002B18D07B6892
:102EC000DA687B681B6C1A447B68DA607B68DA68B6
:102ED0007B685B689A4203D37B681A687B68DA6018
:102EE0007B68D9687B681B6C1A46386801F072FBF6
:102EF00000BF0837BD4680BD80B584B000AF7860A4
:102F000001F064F87B6893F84530FB7311E07B684F
:102F10005B6A002B12D07B682433184600F09AFCC1
:102F20000346002B01D000F06FFDFB7B013BDBB2C1
:102F3000FB7397F90F30002BE9DC00E000BF7B68E2
:102F4000FF2283F8452001F071F801F03FF87B681B
:102F500093F84430BB7311E07B681B69002B12D0DF
:102F60007B681033184600F075FC0346002B01D037
:102F700000F04AFDBB7B013BDBB2BB7397F90E301F
:102F8000002BE9DC00E000BF7B68FF2283F84420CF
:102F900001F04CF800BF1037BD4680BD80B584B04D
:102FA00000AF786001F012F87B689B6B002B02D1B8
:102FB0000123FB6001E00023FB6001F037F8FB68B0
:102FC00018461037BD4680BD80B584B000AF78602C
:102FD00000F0FCFF7B689A6B7B68DB6B9A4202D146
:102FE0000123FB6001E00023FB6001F01FF8FB6898
:102FF00018461037BD4680BD80B58EB004AFF8606E
:10300000B9607A603B607B6B002B0AD14FF05003B4
:1030100083F31188BFF36F8FBFF34F8F3B6200BF05
:10302000FEE7BB6B002B0AD14FF0500383F31188EE
:10303000BFF36F8FBFF34F8FFB6100BFFEE7B42379
:103040003B613B69B42B0AD04FF0500383F31188E6
:10305000BFF36F8FBFF34F8FBB6100BFFEE7BB6B4A
:10306000002B1ED07B6B002B1BD0BB6B7B627B6A63
:103070007A6B1A637B6A022283F8B12000230393E0
:103080007B6A029307F1140301933B6B00933B6847
:103090007A68B968F86800F051F8786A00F0E4F8E6
:1030A00001E000237B617B6918462837BD4680BD5F
:1030B00080B58CB004AFF860B9603B601346FB800C
:1030C000FB889B00184601F081F878617B69002B32
:1030D0000ED0B42001F07AF8F861FB69002B03D020
:1030E000FB697A691A6305E0786901F033F901E058
:1030F0000023FB61FB69002B17D0FB69002283F8DA
:10310000B120FA8800230393FB690293FB6A0193C1
:10311000BB6A00933B68B968F86800F00FF8F8697B
:1031200000F0A2F80123BB6102E04FF0FF33BB6166
:10313000BB6918462037BD4680BD000080B588B009
:1031400000AFF860B9607A603B603B6B1A6B7B68DC
:1031500003F18043013B9B001344BB61BB6923F037
:103160000703BB61BB6903F00703002B0AD04FF0D4
:10317000500383F31188BFF36F8FBFF34F8F7B61D1
:1031800000BFFEE70023FB6112E0BA68FB6913444D
:1031900019783A6BFB69134434330A461A70BA68DB
:1031A000FB6913441B78002B06D0FB690133FB61DC
:1031B000FB690F2BE9D900E000BF3B6B002283F8CD
:1031C0004320BB6A062B01D90623BB623B6BBA6A5C
:1031D000DA623B6BBA6A5A643B6B00229A643B6BBF
:1031E00004331846FFF736F93B6B18331846FFF7E0
:1031F00031F93B6B3A6B1A61BB6AC3F107023B6B57
:103200009A613B6B3A6B5A623B6B0022C3F8AC206D
:103210003B6B002283F8B0203B6B4C3360220021D3
:10322000184601F0E5F93B6B0C4A1A653B6B0C4AFA
:103230005A653B6B0B4A9A653A68F968B86900F0C1
:10324000D7FD02463B6B1A60FB6A002B02D0FB6A7B
:103250003A6B1A6000BF2037BD4680BD045000089D
:1032600024500008E44F000880B582B000AF7860B9
:1032700000F0ACFE2A4B1B680133294A1360294B2E
:103280001B68002B09D1274A7B681360244B1B68FD
:10329000012B10D100F0DCFB0DE0234B1B68002B51
:1032A00009D1204B1B68DA6A7B68DB6A9A4202D834
:1032B0001C4A7B6813601D4B1B6801331B4A13605B
:1032C0007B68DB6A01229A40194B1B681343184A3A
:1032D00013607B68DA6A13469B0013449B00154A0F
:1032E0001A447B68043319461046FFF7BFF800F014
:1032F0009DFE0D4B1B68002B0ED00A4B1B68DA6A33
:103300007B68DB6A9A4207D20B4B4FF080521A60FF
:10331000BFF34F8FBFF36F8F00BF0837BD4680BD2F
:1033200048040020480300205404002064040020C6
:10333000500400204C03002004ED00E080B584B070
:1033400000AF78600023FB607B68002B17D0134B25
:103350001B68002B0AD04FF0500383F31188BFF392
:103360006F8FBFF34F8FBB6000BFFEE700F084F8A4
:103370000021786800F0D6FC00F08CF8F860FB685B
:10338000002B07D1064B4FF080521A60BFF34F8FCE
:10339000BFF36F8F00BF1037BD4680BD70040020A3
:1033A00004ED00E080B58AB004AF0023BB600023C9
:1033B0007B603A46391D07F108031846FCF740FFC9
:1033C00039687B68BA680292019300230093002356
:1033D0000A4621492148FFF70FFE0346204A1360A1
:1033E0001F4B1B68002B02D001237B6101E00023EF
:1033F0007B617B69012B1BD14FF0500383F3118854
:10340000BFF36F8FBFF34F8F3B6100BF154B1B683E
:103410004C33154A1360154B4FF0FF321A60144BB2
:1034200001221A60134B00221A6000F05DFD0EE0CD
:103430007B69B3F1FF3F0AD14FF0500383F311884A
:10344000BFF36F8FBFF34F8FFB6000BFFEE700BF7E
:103450001837BD4680BD00BFC44F0008213A0008A0
:103460006C040020480300201000002068040020A5
:10347000540400204C04002080B400AF044B1B68AF
:103480000133034A136000BFBD4680BC704700BFD4
:103490007004002080B584B000AF0023FB600023DF
:1034A000BB60414B1B68002B0AD14FF0500383F3E4
:1034B0001188BFF36F8FBFF34F8F3B6000BFFEE7F4
:1034C00000F084FD384B1B68013B374A1360364BD4
:1034D0001B68002B61D1354B1B68002B5DD02EE0A3
:1034E000334BDB68DB68FB60FB6818331846FFF77B
:1034F00018F8FB6804331846FFF713F8FB68DB6A1B
:1035000001229A402B4B1B6813432A4A1360FB6825
:10351000DA6A13469B0013449B00274A1A44FB684F
:10352000043319461046FEF7A1FFFB68DA6A234B05
:103530001B68DB6A9A4202D3214B01221A601C4BA2
:103540001B68002BCCD1FB68002B01D000F022FBC4
:103550001C4B1B687B607B68002B10D000F036F89A
:103560000346002B02D0164B01221A607B68013BF8
:103570007B607B68002BF1D1124B00221A60104B4C
:103580001B68002B09D00123BB600F4B4FF080520A
:103590001A60BFF34F8FBFF36F8F00F047FDBB681A
:1035A00018461037BD4680BD700400204804002036
:1035B00008040020500400204C0300204803002091
:1035C0005C0400205804002004ED00E080B586B0C3
:1035D00000AF00237B61514B1B68002B40F08D80B6
:1035E0004F4B1B6801333B614D4A3B6913603B699C
:1035F000002B20D14B4B1B681B68002B0AD04FF0CF
:10360000500383F31188BFF36F8FBFF34F8F3B607D
:1036100000BFFEE7434B1B68FB60434B1B68414AFE
:103620001360414AFB681360404B1B6801333F4AFB
:10363000136000F0AFFA3E4B1B683A699A424DD3D3
:10364000384B1B681B68002B01D1012300E00023CD
:10365000002B04D0364B4FF0FF321A603EE0314B66
:103660001B68DB68DB68BB60BB685B687B603A69D2
:103670007B689A4203D22E4A7B6813602EE0BB68B7
:1036800004331846FEF74DFFBB689B6A002B04D03D
:10369000BB6818331846FEF744FFBB68DB6A01229B
:1036A0009A40244B1B681343224A1360BB68DA6AB2
:1036B00013469B0013449B001F4A1A44BB68043303
:1036C00019461046FEF7D2FEBB68DA6A1B4B1B6830
:1036D000DB6A9A42B4D301237B61B1E7174B1B68C5
:1036E000DA6A154913469B0013449B000B441B6880
:1036F000012B07D901237B6104E0114B1B680133C7
:103700000F4A13600F4B1B68002B01D001237B6114
:103710007B6918461837BD4680BD00BF7004002085
:103720004C04002000040020040400206004002059
:1037300068040020500400204C03002048030020AF
:10374000580400205C04002080B487B000AF294BEF
:103750001B68002B03D0284B01221A6044E0264B43
:1037600000221A60254B1B68FB60FB68B3FA83F3E9
:10377000FB72FB7AC3F11F037B6121497A6913460F
:103780009B0013449B000B441B68002B0AD14FF095
:10379000500383F31188BFF36F8FBFF34F8F7B60AC
:1037A00000BFFEE77A6913469B0013449B00144A4E
:1037B00013443B613B695B685A683B695A603B69EB
:1037C0005A683B6908339A4204D13B695B685A687E
:1037D0003B695A603B695B68DB680A4A1360094BC6
:1037E0001B684C33084A136000BF1C37BD4680BCC1
:1037F000704700BF700400205C04002050040020CB
:103800004C030020480300201000002080B584B045
:1038100000AF786039607B68002B0AD14FF050030D
:1038200083F31188BFF36F8FBFF34F8FFB6000BF2F
:10383000FEE7074B1B68183319467868FEF739FE18
:103840000121386800F06EFA00BF1037BD4680BD18
:103850004803002080B586B000AF78607B68DB68E5
:10386000DB683B613B69002B0AD14FF0500383F3C7
:103870001188BFF36F8FBFF34F8FFB6000BFFEE770
:103880003B6918331846FEF74CFE1D4B1B68002B96
:103890001CD13B6904331846FEF743FE3B69DB6AE3
:1038A00001229A40174B1B681343164A13603B6969
:1038B000DA6A13469B0013449B00134A1A443B697F
:1038C000043319461046FEF7D1FD05E03B69183375
:1038D00019460E48FEF7CAFD3B69DA6A0C4B1B68B5
:1038E000DB6A9A4205D901237B610A4B01221A60E7
:1038F00001E000237B617B6918461837BD4680BD17
:1039000070040020500400204C0300200804002014
:10391000480300205C04002080B483B000AF7860CE
:10392000064B1A687B681A60054B1A687B685A60F8
:1039300000BF0C37BD4680BC704700BF600400204C
:103940004C04002080B588B000AF786039607B6897
:10395000002B0AD14FF0500383F31188BFF36F8F10
:10396000BFF34F8F3B6100BFFEE73B68002B0AD1DE
:103970004FF0500383F31188BFF36F8FBFF34F8F66
:10398000FB6000BFFEE700F021FB1D4B1B68BB6125
:103990007B685B68BA69D31A7B613B681B68B3F1CB
:1039A000FF3F02D10023FB6123E07B681A68154BBF
:1039B0001B689A4207D07B685B68BA699A4202D357
:1039C0000123FB6115E03B681B687A699A420BD2C0
:1039D0003B681A687B69D21A3B681A607868FFF7FF
:1039E0009BFF0023FB6104E03B6800221A60012377
:1039F000FB6100F01BFBFB6918462037BD4680BD0C
:103A00004C0400206004002080B400AF034B01226E
:103A10001A6000BFBD4680BC704700BF5C04002038
:103A200080B582B000AF786000F052F8064B1B689A
:103A3000012BF9D9054B4FF080521A60BFF34F8F1D
:103A4000BFF36F8FF0E700BF4C03002004ED00E0F0
:103A500080B582B000AF00237B600CE07A6813462B
:103A60009B0013449B00124A13441846FEF7D3FCF4
:103A70007B6801337B607B68062BEFD90D48FEF72E
:103A8000CAFC0D48FEF7C7FC0C48FEF7C4FC0C4806
:103A9000FEF7C1FC0B48FEF7BEFC0B4B054A1A6053
:103AA0000A4B054A1A6000BF0837BD4680BD00BFFB
:103AB0004C030020D8030020EC0300200804002061
:103AC0001C04002034040020000400200404002012
:103AD00080B582B000AF19E000F078FA104BDB68D7
:103AE000DB687B607B6804331846FEF71AFD0D4BDC
:103AF0001B68013B0B4A13600B4B1B68013B0A4AD6
:103B0000136000F093FA786800F010F8064B1B6819
:103B1000002BE1D100BF00BF0837BD4680BD00BF0C
:103B20001C040020480400203004002080B584B02C
:103B300000AF78607B684C33184600F0C9FD7B68A5
:103B400093F8B130002B08D17B681B6B184600F04E
:103B500001FC786800F0FEFB18E07B6893F8B13058
:103B6000012B03D1786800F0F5FB0FE07B6893F838
:103B7000B130022B0AD04FF0500383F31188BFF30A
:103B80006F8FBFF34F8FFB6000BFFEE700BF1037A2
:103B9000BD4680BD80B483B000AF0E4B1B681B6870
:103BA000002B01D1012300E00023002B04D00A4B9D
:103BB0004FF0FF321A6008E0064B1B68DB68DB68D9
:103BC0007B607B685B68044A136000BF0C37BD46AE
:103BD00080BC7047000400206804002080B483B0DB
:103BE00000AF0B4B1B68002B02D101237B6008E068
:103BF000084B1B68002B02D102237B6001E00023ED
:103C00007B607B6818460C37BD4680BC704700BFA0
:103C1000540400207004002080B586B000AF7860A6
:103C20007B683B6100237B617B68002B6ED03A4B45
:103C30001B683A699A420AD04FF0500383F3118807
:103C4000BFF36F8FBFF34F8FFB6000BFFEE73B6991
:103C50009B6C002B0AD14FF0500383F31188BFF304
:103C60006F8FBFF34F8FBB6000BFFEE73B699B6C5C
:103C70005A1E3B699A643B69DA6A3B695B6C9A42FB
:103C800044D03B699B6C002B40D13B690433184600
:103C9000FEF747FC0346002B15D13B69DA6A1F4942
:103CA00013469B0013449B000B441B68002B0AD156
:103CB0003B69DB6A012202FA03F3DA43184B1B6803
:103CC0001340174A13603B695A6C3B69DA623B69DF
:103CD000DB6AC3F107023B699A613B69DB6A012237
:103CE0009A400F4B1B6813430D4A13603B69DA6A15
:103CF00013469B0013449B00084A1A443B69043353
:103D000019461046FEF7B2FB01237B617B6918461A
:103D10001837BD4680BD00BF480300204C0300207B
:103D20005004002080B584B000AF78603960294B22
:103D30001B68FB60284B1B6804331846FEF7F1FB39
:103D40000346002B0BD1244B1B68DB6A012202FACD
:103D500003F3DA43214B1B681340204A13607B684E
:103D6000B3F1FF3F0AD13B68002B07D01A4B1B6809
:103D7000043319461A48FEF779FB26E0FA687B6897
:103D80001344BB60144B1B68BA685A60BA68FB687E
:103D90009A4209D2134B1A680F4B1B680433194619
:103DA0001046FEF786FB10E00F4B1A680A4B1B68A3
:103DB000043319461046FEF77CFB0C4B1B68BA68AF
:103DC0009A4202D2094ABB68136000BF1037BD4651
:103DD00080BD00BF4C040020480300205004002098
:103DE00034040020040400200004002068040020A3
:103DF00080B485B000AFF860B9607A60FB68043BBE
:103E0000FB60FB684FF080721A60FB68043BFB604C
:103E1000BB6823F00102FB681A60FB68043BFB608F
:103E2000084AFB681A60FB68143BFB607A68FB6811
:103E30001A60FB68203BFB60FB6818461437BD46E0
:103E400080BC7047493E000880B485B000AF0023B5
:103E50007B60124B1B68B3F1FF3F0AD04FF0500359
:103E600083F31188BFF36F8FBFF34F8FFB6000BFE9
:103E7000FEE74FF0500383F31188BFF36F8FBFF35A
:103E80004F8FBB6000BF00BF7B68002BFCD000BF22
:103E900000BF1437BD4680BC704700BF0C00002037
:103EA000074B19680868B0E8F00F80F30988BFF382
:103EB0006F8F4FF0000080F311884EF00D0E7047A9
:103EC0004803002000BF00BF06480068006880F378
:103ED000088862B661B6BFF34F8FBFF36F8F00DF04
:103EE00000BF00BF08ED00E080B584B000AF324BEA
:103EF000FB60FB681B78DBB27B60FB68FF221A70FB
:103F0000FB681B78DBB2FB70FB78DBB203F050037D
:103F1000DAB22A4B1A702A4B07221A6009E0284BA2
:103F20001B68013B264A1360FB78DBB25B00DBB207
:103F3000FB70FB78DBB203F08003802BEFD0204BCB
:103F40001B68C3F10703042B0AD04FF0500383F31F
:103F50001188BFF36F8FBFF34F8FBB6000BFFEE7C9
:103F6000174B1B681B02164A1360154B1B6803F4A2
:103F7000E063134A13607B68DAB2FB681A70114B76
:103F80001B68104A43F4700313600E4B1B680D4A04
:103F900043F07043136000F0B9F80B4B00221A6035
:103FA000FFF792FFFFF7D0FBFFF74EFF0023184605
:103FB0001037BD4680BD00BF00E400E0740400205F
:103FC0007804002020ED00E00C00002080B483B0D5
:103FD00000AF4FF0500383F31188BFF36F8FBFF32F
:103FE0004F8F7B6000BF0F4B1B6801330D4A13607E
:103FF0000C4B1B68012B0FD10B4B1B68DBB2002B4A
:104000000AD04FF0500383F31188BFF36F8FBFF3D3
:104010004F8F3B6000BFFEE700BF0C37BD4680BC42
:10402000704700BF0C00002004ED00E080B483B0B6
:1040300000AF114B1B68002B0AD14FF0500383F3E4
:104040001188BFF36F8FBFF34F8F7B6000BFFEE718
:10405000094B1B68013B084A1360074B1B68002B88
:1040600005D100233B603B6883F3118800BF00BF8C
:104070000C37BD4680BC70470C00002000000000DB
:10408000EFF30980BFF36F8F0D4B1A6820E9F00F33
:1040900010602DE908404FF0500080F31188FFF7C1
:1040A00053FB4FF0000080F31188BDE80840196809
:1040B0000868B0E8F00F80F30988BFF36F8F70478E
:1040C0004803002000BF00BF80B582B000AF4FF0B2
:1040D000500383F31188BFF36F8FBFF34F8F7B6063
:1040E00000BFFFF773FA0346002B03D0064B4FF0D7
:1040F00080521A6000233B603B6883F3118800BF45
:1041000000BF0837BD4680BD04ED00E080B400AFBD
:104110000A4B00221A600A4B00221A60094B1B68E6
:10412000094AA2FB03239B09084A013B1360034B86
:1041300007221A6000BFBD4680BC704710E000E057
:1041400018E000E000000020D34D621014E000E011
:1041500080B485B000AFEFF30583FB60FB680F2BE5
:1041600014D9164AFB6813441B78FB72144B1B7856
:10417000FA7A9A420AD24FF0500383F31188BFF3C0
:104180006F8FBFF34F8F7B6000BFFEE70D4B1B6847
:1041900003F4E0620C4B1B689A420AD94FF05003BB
:1041A00083F31188BFF36F8FBFF34F8F3B6000BF66
:1041B000FEE700BF1437BD4680BC7047F0E300E067
:1041C000740400200CED00E07804002080B58AB073
:1041D00000AF78600023FB61FFF74EF9584B1B6876
:1041E000002B01D100F010F9564B1A687B68134080
:1041F000002B40F08E807B68002B1DD008227B684E
:1042000013447B607B6803F00703002B14D07B68AA
:1042100023F0070308337B607B6803F00703002B60
:104220000AD04FF0500383F31188BFF36F8FBFF3B1
:104230004F8F7B6100BFFEE77B68002B69D0424B4C
:104240001B687A689A4264D8404B3B623F4B1B68BC
:104250007B6204E07B6A3B627B6A1B687B627B6AF1
:104260005B687A689A4203D97B6A1B68002BF1D19C
:10427000334B1B687A6A9A424BD03B6A1B68082210
:104280001344FB617B6A1A683B6A1A607B6A5A684E
:104290007B68D21A08235B009A421FD97A6A7B682E
:1042A0001344BB61BB6903F00703002B0AD04FF036
:1042B000500383F31188BFF36F8FBFF34F8F3B61C0
:1042C00000BFFEE77B6A5A687B68D21ABB695A60F6
:1042D0007B6A7A685A60B86900F0F8F81A4B1A6875
:1042E0007B6A5B68D31A184A1360174B1A68184B1D
:1042F0001B689A4203D2144B1B68154A13607B6AF1
:104300005A68104B1B681A437B6A5A607B6A00220A
:104310001A60FFF7BFF8FB6903F00703002B0AD010
:104320004FF0500383F31188BFF36F8FBFF34F8FAC
:10433000FB6000BFFEE7FB6918462837BD4680BD1D
:104340008410002090100020881000207C10002095
:104350008C10002080B586B000AF78607B687B61F0
:104360007B68002B48D008235B427A6913447B6149
:104370007B693B613B695A68214B1B681340002BEA
:104380000AD14FF0500383F31188BFF36F8FBFF34F
:104390004F8FFB6000BFFEE73B691B68002B0AD014
:1043A0004FF0500383F31188BFF36F8FBFF34F8F2C
:1043B000BB6000BFFEE73B695A68114B1B681340A6
:1043C000002B19D03B691B68002B15D13B695A683B
:1043D0000B4B1B68DB431A403B695A60FFF74CF8F4
:1043E0003B695A68074B1B681344064A13603869D7
:1043F00000F06CF8FFF74EF800BF1837BD4680BDDF
:10440000901000208810002080B485B000AF4FF4D9
:104410004063BB60274BFB60FB6803F00703002B86
:104420000CD0FB680733FB60FB6823F00703FB60DD
:10443000BA68FB68D31A1F4A1344BB60FB687B60F1
:104440001D4A7B6813601C4B00225A607B68BA6867
:104450001344FB600822FB689B1AFB60FB6823F097
:104460000703FB60FB68154A1360144B1B680022AE
:104470005A60124B1B6800221A607B683B603B68E5
:10448000FA68D21A3B685A600C4B1A683B681A608B
:104490003B685B680A4A13603B685B68094A1360C3
:1044A000094B4FF000421A6000BF1437BD4680BC74
:1044B000704700BF7C0400207C1000208410002086
:1044C0008C100020881000209010002080B485B04F
:1044D00000AF7860274BFB6002E0FB681B68FB6065
:1044E000FB681B687A689A42F7D8FB68BB60FB6878
:1044F0005B68BA6813447A689A4208D1FB685A68C4
:104500007B685B681A44FB685A60FB687B607B6869
:10451000BB607B685B68BA681A44FB681B689A4298
:1045200018D1FB681A68144B1B689A420DD07B683F
:104530005A68FB681B685B681A447B685A60FB68B2
:104540001B681A687B681A6008E00B4B1A687B6866
:104550001A6003E0FB681A687B681A60FA687B6877
:104560009A4202D0FB687A681A6000BF1437BD46D1
:1045700080BC70477C10002084100020014B18681C
:10458000704700BF1000002070B500260C4D0D4C88
:10459000641BA410A64209D100F0C6FC00260A4DF7
:1045A0000A4C641BA410A64205D170BD55F8043B0B
:1045B00098470136EEE755F8043B98470136F2E795
:1045C0007850000878500008785000087C500008A7
:1045D000704770470A44914200F1FF3300D17047A1
:1045E00010B511F8014B914203F8014FF9D110BDFC
:1045F00003460244934200D1704703F8011BF9E7D8
:10460000F8B5CD1C25F0030508350C2D38BF0C2559
:10461000002D064601DBA94203D90C23336000209C
:10462000F8BD00F0E1F821490A6814469CB9204F12
:104630003B6823B92146304600F0A6F83860294689
:10464000304600F0A1F8431C23D10C2330463360E0
:1046500000F0D0F8E3E723685B1B17D40B2B03D9DA
:1046600023601C44256004E06368A2420CBF0B6019
:104670005360304600F0BEF804F10B00231D20F01B
:104680000700C21ACCD01B1AA350C9E7224664689F
:10469000CCE7C41C24F00304A042E3D0211A304626
:1046A00000F072F80130DDD1CFE700BF9410002098
:1046B0009810002038B50C460968054609B1FFF787
:1046C000F9FF21462846BDE8384000F099B80000BF
:1046D0002C4B70B51B680446834251D0436A43B1EA
:1046E000DB68002B4AD1636A196811B1204600F0DB
:1046F00087F8616911B1204600F082F8616A11B152
:10470000204600F07DF8A16B11B1204600F078F84A
:10471000E16B11B1204600F073F8216C11B1204615
:1047200000F06EF8E16D11B1204600F069F8A16D5E
:1047300011B1204600F064F8616B11B1204600F021
:104740005FF8A369E3B12046A36A9847A16CB9B1A9
:104750002046BDE87040FFF7ADBF495941B9043567
:10476000636A802DD968F8D1204600F049F8BAE78D
:104770000E68204600F044F83146EFE70025EFE7E9
:1047800070BD00BF1000002038B50023054D044661
:1047900008462B60FBF7DAFF431C02D12B6803B1FC
:1047A000236038BD481100200EB46FF0004100B501
:1047B0009CB01DAB029006900791049108480949EE
:1047C00053F8042B0591006802A9019300F0C0F88A
:1047D0000022029B1A701CB05DF804EB03B0704716
:1047E000100000200802FFFF0148FFF7F1BE00BFE4
:1047F000401100200148FFF7ECBE00BF401100202F
:1048000038B50546002943D051F8043C0C1F002B55
:10481000B8BFE418FFF7E8FF1E4A1368104633B923
:10482000636014602846BDE83840FFF7E3BFA34249
:104830000AD921686218934201BF1A685B6852184E
:10484000226063600460EDE71A465B680BB1A34227
:10485000FAD911685018A0420BD1206801445018B1
:1048600083421160DED118685B68014411605360B7
:10487000D8E702D90C232B60D4E7206821188B429B
:1048800001BF19685B680918216063605460C9E75B
:1048900038BD00BF941000202DE9F0478E68824695
:1048A0009E420C4690461F4638D88A8912F4906F73
:1048B00032D0256809690133A5EB010965694B44CC
:1048C00005EB450505EBD5756D109D4238BF1D46BE
:1048D000530531D52946FFF793FE064650B90C2300
:1048E0004FF0FF30CAF80030A38943F04003A381A2
:1048F000BDE8F0874A462169FFF76CFEA38923F4DF
:10490000906343F08003A38126614E4426603E46B7
:104910006561A5EB0905A560BE4200D93E46324659
:104920004146206800F0B8FAA36822689B1B324415
:104930000020A3602260DBE72A4600F0C7FA0646A3
:104940000028E1D150462169FFF75AFFC7E7000070
:104950002DE9F04F98468B8907461B060D461446F5
:104960009DB00ED50B6963B94021FFF749FE286061
:10497000286120B90C233B604FF0FF30D1E0402389
:104980006B610023099320238DF8293030234FF0E9
:104990000109CDF80C80DFF8A4818DF82A30234678
:1049A0009A4613F8012B0AB1252AF9D1BAEB040B68
:1049B0000BD05B46224629463846FFF76DFF013093
:1049C00000F0AA80099A5A4409929AF80030002B04
:1049D00000F0A28000234FF0FF32CDE905230AF159
:1049E000010A049307938DF853301A935446052215
:1049F00014F8011B514800F041FA049AD8B9D006C6
:104A000044BF20238DF85330110744BF2B238DF86A
:104A100053309AF800302A2B15D0544600204FF01E
:104A20000A0C079A214611F8013B303B092B4ED95D
:104A3000B0B1079214E0A0EB080309FA03F31343A3
:104A4000A2460493D2E7039B191D1B680391002B18
:104A5000BBBF5B4242F0020207930793B8BF0492C8
:104A600023782E2B0CD163782A2B35D1039B02346B
:104A70001A1D1B680392002BB8BF4FF0FF3305933C
:104A8000DFF8C8A003225046217800F0F7F940B1C2
:104A90004023A0EB0A0003FA00F0049B0134034317
:104AA000049314F8011B062225488DF8281000F005
:104AB000E5F9002838D0234B1BBB039B073323F0B9
:104AC000070308330393099B3344099367E70C46B4
:104AD00001200CFB0232A5E700234FF00A0C194617
:104AE00001340593204610F8012B303A092A03D9E6
:104AF000002BC5D00591C3E7044601230CFB01211F
:104B0000F0E703AB00932A4638460F4B04A9AFF3F6
:104B10000080421C0646D6D1AB895B063FF52CAF20
:104B200009981DB0BDE8F08F03AB00932A463846C4
:104B3000054B04A900F07CF8EBE700BF44500008E7
:104B40004E50000800000000994800084A50000834
:104B50002DE9F047164699468A680B690746934245
:104B6000B8BF1346336091F843200C46DDF820802F
:104B70000AB1013333602368990642BF33680233B8
:104B80003360256815F0060506D104F1190AE368BB
:104B900032689B1AAB4228DC94F84320131E22682B
:104BA00018BF012392062DD44946384604F143022A
:104BB000C047013020D02368E56803F00603042BCA
:104BC00018BF002532684FF00006A36808BFAD1A71
:104BD000226908BF25EAE5759342C4BF9B1AED1808
:104BE0001A34B5421AD1002008E001235246494642
:104BF0003846C047013003D14FF0FF30BDE8F087A1
:104C00000135C4E73020E11881F843005A1C94F8BC
:104C100045102244023382F84310C5E7012322469F
:104C200049463846C0470130E6D00136D9E7000092
:104C30002DE9FF470C46277E9146782F80469A46FD
:104C40000C9904F1430207D8622F0AD8002F00F014
:104C5000D980582F00F0A48004F1420684F84270F5
:104C60003AE0A7F16303152BF6D801A050F823F022
:104C7000C94C0008DD4C0008594C0008594C00088C
:104C8000594C0008594C0008DD4C0008594C0008EC
:104C9000594C0008594C0008594C0008EB4D0008CD
:104CA0000D4D0008CD4D0008594C0008594C000826
:104CB0000D4E0008594C00080D4D0008594C0008D5
:104CC000594C0008D54D00080B6804F142061A1D26
:104CD0001B680A6084F842300123A4E02568086854
:104CE0002E0600F104030AD505680B60002D03DAD7
:104CF0002D236D4284F843300A235E4819E015F0F5
:104D0000400F05680B6018BF2DB2EFE70B682568F0
:104D1000181D0860280601D51D6802E06906FBD54C
:104D20001D886F2F0CBF08230A235248002184F8E6
:104D300043106668002EA8BF2168A660A4BF21F0BA
:104D4000040121600DB9002E4DD01646B5FBF3F1DC
:104D500003FB1157C75D06F8017D2F46BB420D4688
:104D6000F4D9082B0BD12368DF0708D523696168C4
:104D70009942DEBF302306F8013C06F1FF36921B54
:104D800022614B4621464046CDF800A003AAFFF71A
:104D9000DFFE01304CD14FF0FF3004B0BDE8F087AA
:104DA000344884F845700E68236856F8045B1F0683
:104DB0000E6014D5D90744BF43F0200323601DB90A
:104DC000236823F0200323601023AFE7236843F018
:104DD000200323607823284884F84530E3E75E0603
:104DE00048BFADB2E6E71646BBE70B6826681D1D57
:104DF00060690D6035061B6801D5186002E0710618
:104E0000FBD51880002316462361BAE70B681A1DEC
:104E10000A601E6800213046626800F02FF808B171
:104E2000801B606063682361002384F84330A8E737
:104E30003246494640462369D0470130ABD023680B
:104E40009B0713D4E068039B9842B8BF1846A4E7B9
:104E50000123324649464046D04701309BD00135B8
:104E6000E36803995B1AAB42F2DCEBE7002504F13F
:104E70001906F5E75550000866500008034610B5BE
:104E8000C9B202449342184601D1002003E00478DD
:104E900001338C42F6D110BD884210B501EB0204FB
:104EA00002D98442234607D8431EA14208D011F8F4
:104EB000012B03F8012FF8E7014602448A4200D192
:104EC00010BD13F8014D02F8014DF7E7F8B507469C
:104ED00014460E4621B91146BDE8F840FFF790BBD5
:104EE00022B9FFF78DFC25462846F8BD00F014F8DE
:104EF000A0420FD221463846FFF782FB0546002824
:104F0000F2D031462246FFF765FB31463846FFF7BF
:104F100077FCE9E73546E7E751F8043C181F002B1A
:104F2000BCBF0B58C0187047F8B500BFF8BC08BC30
:104F30009E467047F8B500BFF8BC08BC9E46704757
:104F40004D736750726F6475636572004D7367438C
:104F50006F6E73756D657200100000000200000036
:104F60000000000000000000404F00085504000849
:104F700000000000000000008000000000000000B1
:104F8000000000004C4F0008B904000800000000B9
:104F90000000000080000000000000000000000091
:104FA0004D61696C2076616C75653A2025640D0A47
:104FB0000000000002030405060708090A0B0C0D97
:104FC0000E0F101049444C45000000000000000086
:104FD00000000000010203040607080900000000A9
:104FE00001020304000000000000000000000000B7
:104FF00000000000000000000000000000000000B1
:1050000000000000000000000000000000000000A0
:105010000000000000000000000000000000000090
:105020000000000000000000000000000000000080
:105030000000000000000000000000000000000070
:1050400000000000232D302B2000686C4C006566AA
:1050500067454647003031323334353637383941C9
:1050600042434445460030313233343536373839DF
:085070006162636465660000E3
:045078001502000815
:04507C00F101000836
:105080000024F4001000000001000000AAAAAAAA4F
:105090001400002000000000045000082450000804
:1050A000E44F0008000000000000000000000000C5
:1050B00000000000000000000000000000000000F0
:1050C00000000000000000000000000000000000E0
:1050D00000000000000000000000000000000000D0
:1050E00000000000000000000000000000000000C0
:0450F00000000000BC
:04000005080007C523
:00000001FF
